{
  "abi": [
    {
      "inputs": [],
      "name": "data",
      "outputs": [
        {
          "internalType": "bytes",
          "name": "",
          "type": "bytes"
        }
      ],
      "stateMutability": "view",
      "type": "function"
    },
    {
      "inputs": [],
      "name": "from",
      "outputs": [
        {
          "internalType": "address",
          "name": "",
          "type": "address"
        }
      ],
      "stateMutability": "view",
      "type": "function"
    },
    {
      "inputs": [],
      "name": "id",
      "outputs": [
        {
          "internalType": "uint256",
          "name": "",
          "type": "uint256"
        }
      ],
      "stateMutability": "view",
      "type": "function"
    },
    {
      "inputs": [
        {
          "internalType": "address",
          "name": "_operator",
          "type": "address"
        },
        {
          "internalType": "address",
          "name": "_from",
          "type": "address"
        },
        {
          "internalType": "uint256",
          "name": "_id",
          "type": "uint256"
        },
        {
          "internalType": "bytes",
          "name": "_data",
          "type": "bytes"
        }
      ],
      "name": "onERC721Received",
      "outputs": [
        {
          "internalType": "bytes4",
          "name": "",
          "type": "bytes4"
        }
      ],
      "stateMutability": "nonpayable",
      "type": "function"
    },
    {
      "inputs": [],
      "name": "operator",
      "outputs": [
        {
          "internalType": "address",
          "name": "",
          "type": "address"
        }
      ],
      "stateMutability": "view",
      "type": "function"
    }
  ],
  "bytecode": {
    "object": "0x60806040523461001a5760405161082d610020823961082d90f35b600080fdfe6080604052600436101561001257600080fd5b60003560e01c8063150b7a0214610062578063570ca7351461005d57806373d4a13a14610058578063af640d0f146100535763d5ce338903610067576104fe565b6104c7565b61047e565b6101e5565b61014d565b600080fd5b73ffffffffffffffffffffffffffffffffffffffff1690565b90565b73ffffffffffffffffffffffffffffffffffffffff81165b0361006757565b905035906100b482610088565b565b806100a0565b905035906100b4826100b6565b909182601f830112156100675781359167ffffffffffffffff831161006757602001926001830284011161006757565b906080828203126100675761010e81836100a7565b9261011c82602085016100a7565b9261012a83604083016100bc565b92606082013567ffffffffffffffff81116100675761014992016100c9565b9091565b346100675761019f61016c6101633660046100f9565b939290926107ea565b604051918291827fffffffff00000000000000000000000000000000000000000000000000000000909116815260200190565b0390f35b600091031261006757565b610085916008021c73ffffffffffffffffffffffffffffffffffffffff1690565b9061008591546101ae565b6100856000806101cf565b34610067576101f53660046101a3565b61019f6102006101da565b6040519182918273ffffffffffffffffffffffffffffffffffffffff909116815260200190565b7f4e487b7100000000000000000000000000000000000000000000000000000000600052600060045260246000fd5b7f4e487b7100000000000000000000000000000000000000000000000000000000600052602260045260246000fd5b90600160028304921680156102a5575b60208310146102a057565b610256565b91607f1691610295565b805460009392916102cc6102c283610285565b8085529360200190565b916001811690811561031e57506001146102e557505050565b6102f89192939450600052602060002090565b916000925b81841061030a5750500190565b8054848401526020909301926001016102fd565b92949550505060ff1916825215156020020190565b90610085916102af565b7f4e487b7100000000000000000000000000000000000000000000000000000000600052604160045260246000fd5b90601f017fffffffffffffffffffffffffffffffffffffffffffffffffffffffffffffffe016810190811067ffffffffffffffff8211176103ac57604052565b61033d565b906100b46103cb926103c260405190565b93848092610333565b038361036c565b906000106103e357610085906103b1565b610227565b610085600060036103d2565b60005b8381106104075750506000910152565b81810151838201526020016103f7565b6104386104416020936104699361042c815190565b80835293849260200190565b958691016103f4565b601f017fffffffffffffffffffffffffffffffffffffffffffffffffffffffffffffffe01690565b0190565b602080825261008592910190610417565b346100675761048e3660046101a3565b61019f6104996103e8565b6040519182918261046d565b610085916008021c81565b9061008591546104a5565b610085600060026104b0565b34610067576104d73660046101a3565b61019f6104e26104bb565b6040519182918290815260200190565b610085600060016101cf565b346100675761050e3660046101a3565b61019f6102006104f2565b9073ffffffffffffffffffffffffffffffffffffffff905b9181191691161790565b61006c6100856100859273ffffffffffffffffffffffffffffffffffffffff1690565b6100859061053b565b6100859061055e565b9061058061008561058792610567565b8254610519565b9055565b907fffffffffffffffffffffffffffffffffffffffffffffffffffffffffffffffff90610531565b6100856100856100859290565b906105d0610085610587926105b3565b825461058b565b9190600861053191029161060a7fffffffffffffffffffffffffffffffffffffffffffffffffffffffffffffffff841b90565b921b90565b9190610620610085610587936105b3565b9083546105d7565b6100b49160009161060f565b81811061063f575050565b8061064d6000600193610628565b01610634565b9190601f811161066257505050565b6106746100b493600052602060002090565b906020601f840181900483019310610696575b6020601f909101040190610634565b9091508190610687565b919067ffffffffffffffff82116103ac576106c5826106bf8554610285565b85610653565b600090601f831160011461071e57610587929160009183610713575b50507fffffffffffffffffffffffffffffffffffffffffffffffffffffffffffffffff600883021c1916906002021790565b0135905038806106e1565b90601f1983169161073485600052602060002090565b92825b81811061078f57509160029391856001969410610758575b50505002019055565b01357fffffffffffffffffffffffffffffffffffffffffffffffffffffffffffffffff601f84166008021c1916905538808061074f565b92936020600181928786013581550195019301610737565b906100b492916106a0565b6107c56107bf6100859290565b60e01b90565b7fffffffff000000000000000000000000000000000000000000000000000000001690565b916108126108199261080b610820979695610803600090565b506000610570565b6001610570565b60026105c0565b60036107a7565b61008563150b7a026107b256",
    "linkReferences": {}
  },
  "methodIdentifiers": {
    "data()": "73d4a13a",
    "from()": "d5ce3389",
    "id()": "af640d0f",
    "onERC721Received(address,address,uint256,bytes)": "150b7a02",
    "operator()": "570ca735"
  },
  "id": 45
}