{
  "abi": [
    {
      "inputs": [
        {
          "internalType": "address",
          "name": "tokenAddress",
          "type": "address"
        }
      ],
      "name": "getRoyaltyLookupAddress",
      "outputs": [
        {
          "internalType": "address",
          "name": "",
          "type": "address"
        }
      ],
      "stateMutability": "pure",
      "type": "function"
    }
  ],
  "bytecode": {
    "object": "0x6080604052346100185760405160a461001e823960a490f35b600080fdfe60806040526004361015601157600080fd5b60003560e01c63de5488af146084575b600080fd5b90565b73ffffffffffffffffffffffffffffffffffffffff811603602157565b905035906051826029565b565b906020828203126021576026916046565b73ffffffffffffffffffffffffffffffffffffffff909116815260200190565b3460215760a0609560263660046053565b604051918291826064565b0390f3",
    "linkReferences": {}
  },
  "methodIdentifiers": {
    "getRoyaltyLookupAddress(address)": "de5488af"
  },
  "id": 47
}