{
  "abi": [
    {
      "anonymous": false,
      "inputs": [
        {
          "indexed": true,
          "internalType": "address",
          "name": "owner",
          "type": "address"
        },
        {
          "indexed": true,
          "internalType": "address",
          "name": "approved",
          "type": "address"
        },
        {
          "indexed": true,
          "internalType": "uint256",
          "name": "tokenId",
          "type": "uint256"
        }
      ],
      "name": "Approval",
      "type": "event"
    },
    {
      "anonymous": false,
      "inputs": [
        {
          "indexed": true,
          "internalType": "address",
          "name": "owner",
          "type": "address"
        },
        {
          "indexed": true,
          "internalType": "address",
          "name": "operator",
          "type": "address"
        },
        {
          "indexed": false,
          "internalType": "bool",
          "name": "approved",
          "type": "bool"
        }
      ],
      "name": "ApprovalForAll",
      "type": "event"
    },
    {
      "anonymous": false,
      "inputs": [
        {
          "indexed": true,
          "internalType": "address",
          "name": "from",
          "type": "address"
        },
        {
          "indexed": true,
          "internalType": "address",
          "name": "to",
          "type": "address"
        },
        {
          "indexed": true,
          "internalType": "uint256",
          "name": "tokenId",
          "type": "uint256"
        }
      ],
      "name": "Transfer",
      "type": "event"
    },
    {
      "inputs": [
        {
          "internalType": "address",
          "name": "to",
          "type": "address"
        },
        {
          "internalType": "uint256",
          "name": "tokenId",
          "type": "uint256"
        }
      ],
      "name": "approve",
      "outputs": [],
      "stateMutability": "nonpayable",
      "type": "function"
    },
    {
      "inputs": [
        {
          "internalType": "address",
          "name": "_owner",
          "type": "address"
        }
      ],
      "name": "balanceOf",
      "outputs": [
        {
          "internalType": "uint256",
          "name": "",
          "type": "uint256"
        }
      ],
      "stateMutability": "view",
      "type": "function"
    },
    {
      "inputs": [
        {
          "internalType": "uint256",
          "name": "tokenId",
          "type": "uint256"
        }
      ],
      "name": "getApproved",
      "outputs": [
        {
          "internalType": "address",
          "name": "",
          "type": "address"
        }
      ],
      "stateMutability": "view",
      "type": "function"
    },
    {
      "inputs": [
        {
          "internalType": "address",
          "name": "owner",
          "type": "address"
        },
        {
          "internalType": "address",
          "name": "operator",
          "type": "address"
        }
      ],
      "name": "isApprovedForAll",
      "outputs": [
        {
          "internalType": "bool",
          "name": "",
          "type": "bool"
        }
      ],
      "stateMutability": "view",
      "type": "function"
    },
    {
      "inputs": [
        {
          "internalType": "uint256",
          "name": "tokenId",
          "type": "uint256"
        }
      ],
      "name": "ownerOf",
      "outputs": [
        {
          "internalType": "address",
          "name": "_owner",
          "type": "address"
        }
      ],
      "stateMutability": "view",
      "type": "function"
    },
    {
      "inputs": [
        {
          "internalType": "address",
          "name": "from",
          "type": "address"
        },
        {
          "internalType": "address",
          "name": "to",
          "type": "address"
        },
        {
          "internalType": "uint256",
          "name": "tokenId",
          "type": "uint256"
        }
      ],
      "name": "safeTransferFrom",
      "outputs": [],
      "stateMutability": "nonpayable",
      "type": "function"
    },
    {
      "inputs": [
        {
          "internalType": "address",
          "name": "_from",
          "type": "address"
        },
        {
          "internalType": "address",
          "name": "_to",
          "type": "address"
        },
        {
          "internalType": "uint256",
          "name": "_tokenId",
          "type": "uint256"
        },
        {
          "internalType": "bytes",
          "name": "_data",
          "type": "bytes"
        }
      ],
      "name": "safeTransferFrom",
      "outputs": [],
      "stateMutability": "nonpayable",
      "type": "function"
    },
    {
      "inputs": [
        {
          "internalType": "address",
          "name": "operator",
          "type": "address"
        },
        {
          "internalType": "bool",
          "name": "approved",
          "type": "bool"
        }
      ],
      "name": "setApprovalForAll",
      "outputs": [],
      "stateMutability": "nonpayable",
      "type": "function"
    },
    {
      "inputs": [
        {
          "internalType": "address",
          "name": "from",
          "type": "address"
        },
        {
          "internalType": "address",
          "name": "to",
          "type": "address"
        },
        {
          "internalType": "uint256",
          "name": "tokenId",
          "type": "uint256"
        }
      ],
      "name": "transferFrom",
      "outputs": [],
      "stateMutability": "nonpayable",
      "type": "function"
    }
  ],
  "bytecode": {
    "object": "0x60806040523461001a57604051610d816100208239610d8190f35b600080fdfe6080604052600436101561001257600080fd5b60003560e01c8063081812fc146100a2578063095ea7b31461009d57806323b872dd1461009857806342842e0e146100935780636352211e1461008e57806370a0823114610089578063a22cb46514610084578063b88d4fde1461007f5763e985e9c5036100a757610456565b610417565b610291565b61022e565b6101ff565b6101e6565b6101cd565b610186565b6100f4565b600080fd5b805b036100a757565b905035906100c2826100ac565b565b906020828203126100a7576100d8916100b5565b90565b73ffffffffffffffffffffffffffffffffffffffff1690565b346100a75761013661010f61010a3660046100c4565b6104b1565b6040519182918273ffffffffffffffffffffffffffffffffffffffff909116815260200190565b0390f35b73ffffffffffffffffffffffffffffffffffffffff81166100ae565b905035906100c28261013a565b91906040838203126100a7576100d890602061017f8286610156565b94016100b5565b346100a75761019f610199366004610163565b90610532565b604051005b90916060828403126100a7576100d86101bd8484610156565b93604061017f8260208701610156565b346100a75761019f6101e03660046101a4565b91610596565b346100a75761019f6101f93660046101a4565b916105d2565b346100a75761013661010f6102153660046100c4565b610675565b906020828203126100a7576100d891610156565b346100a75761013661024961024436600461021a565b610724565b6040519182918290815260200190565b8015156100ae565b905035906100c282610259565b91906040838203126100a7576100d890602061028a8286610156565b9401610261565b346100a75761019f6102a436600461026e565b906107cd565b7f4e487b7100000000000000000000000000000000000000000000000000000000600052604160045260246000fd5b90601f017fffffffffffffffffffffffffffffffffffffffffffffffffffffffffffffffe016810190811067ffffffffffffffff82111761031957604052565b6102aa565b906100c261032b60405190565b92836102d9565b67ffffffffffffffff811161031957602090601f017fffffffffffffffffffffffffffffffffffffffffffffffffffffffffffffffe0160190565b0190565b90826000939282370152565b9092919261039261038d82610332565b61031e565b93818552818301116100a7576100c2916020850190610371565b9080601f830112156100a7578160206100d89335910161037d565b906080828203126100a7576103dc8183610156565b926103ea8260208501610156565b926103f883604083016100b5565b92606082013567ffffffffffffffff81116100a7576100d892016103ac565b346100a75761019f61042a3660046103c7565b929190916107d8565b91906040838203126100a7576100d890602061044f8286610156565b9401610156565b346100a75761013661047261046c366004610433565b906107f1565b6040515b91829182901515815260200190565b156100a757565b6100d86100d86100d89290565b906104a39061048c565b600052602052604060002090565b6104d96100d8916104c0600090565b506104d26104cd82610811565b610485565b6001610499565b5473ffffffffffffffffffffffffffffffffffffffff1690565b6100db6100d86100d89273ffffffffffffffffffffffffffffffffffffffff1690565b6100d8906104f3565b6100d890610516565b906104a39061051f565b906100c29161056a61054383610675565b73ffffffffffffffffffffffffffffffffffffffff8116331490811561056f575b50610485565b610870565b6105909150610582610589916002610528565b3390610528565b5460ff1690565b38610564565b906100c292916105a96104cd84336108d9565b6109c2565b906105bb61038d83610332565b918252565b6100d860006105ae565b6100d86105c0565b90916100c2926105e06105ca565b926107d8565b7f4e487b7100000000000000000000000000000000000000000000000000000000600052603260045260246000fd5b80548210156106385761062f600191600052602060002090565b91020190600090565b6105e6565b6100d8916008021c6100db565b906100d8915461063d565b6100db6100d86100d89290565b6100d890610655565b6100d86000610662565b61068c61069291610684600090565b506000610615565b9061064a565b90816106bc6106a26100db61066b565b9173ffffffffffffffffffffffffffffffffffffffff1690565b146100a757565b7f4e487b7100000000000000000000000000000000000000000000000000000000600052601160045260246000fd5b7fffffffffffffffffffffffffffffffffffffffffffffffffffffffffffffffff811461071f5760010190565b6106c3565b906000906107336100db61066b565b73ffffffffffffffffffffffffffffffffffffffff8416146100a75760009261075b8461048c565b91610764855490565b935b845b8110156107c45761077f6100db61068c8389610615565b73ffffffffffffffffffffffffffffffffffffffff8416146107ab575b610768906001015b9050610766565b926107a46107bb610768926106f2565b9491505061079c565b50935050905090565b906100c29133610aa6565b906100c29392916107ec6104cd84336108d9565b610b2b565b6100d89161080c61058992610804600090565b506002610528565b610528565b61068c61082091610684600090565b61082e6106a26100db61066b565b141590565b9073ffffffffffffffffffffffffffffffffffffffff905b9181191691161790565b906108656100d861086c9261051f565b8254610833565b9055565b9061088582610880836001610499565b610855565b6108a86108a261089c61089784610675565b61051f565b9361051f565b9161048c565b917f8c5be1e5ebec7d5bd14f71427d1e84f3dd0314c0f7b2291e5b200ac8c7c3b9256108d360405190565b600090a4565b6108e56104cd83610811565b6108ee82610675565b73ffffffffffffffffffffffffffffffffffffffff811673ffffffffffffffffffffffffffffffffffffffff831614928315610945575b50821561093157505090565b6100d892509061080c610589926002610528565b6109569193506104d9906001610499565b61097573ffffffffffffffffffffffffffffffffffffffff83166106a2565b149138610925565b9190600861084b9102916109a473ffffffffffffffffffffffffffffffffffffffff841b90565b921b90565b91906109ba6100d861086c9361051f565b90835461097d565b9190916109f66109d183610675565b6109f073ffffffffffffffffffffffffffffffffffffffff84166106a2565b14610485565b6109fe61066b565b9073ffffffffffffffffffffffffffffffffffffffff821673ffffffffffffffffffffffffffffffffffffffff8516146100a75761089c6108a291610a4685610a5b95610870565b61089786610a55876000610615565b906109a9565b917fddf252ad1be2c89b69c2b068fc378daa952ba7f163c4a11628f55a4df523b3ef6108d360405190565b9060ff9061084b565b90610a9f6100d861086c92151590565b8254610a86565b73ffffffffffffffffffffffffffffffffffffffff821673ffffffffffffffffffffffffffffffffffffffff8216146100a757610b26610b1c61089c8361089787610b178861080c7f17307eab39ab6107e8899845ad3d59bd9653f200f220920489ca2b5937696c31996002610528565b610a8f565b9361047660405190565b0390a3565b906100c2939291610b3d8383836109c2565b610c82565b7fffffffff0000000000000000000000000000000000000000000000000000000081166100ae565b905051906100c282610b42565b906020828203126100a7576100d891610b6a565b60005b838110610b9e5750506000910152565b8181015183820152602001610b8e565b610bcf610bd860209361036d93610bc3815190565b80835293849260200190565b95869101610b8b565b601f017fffffffffffffffffffffffffffffffffffffffffffffffffffffffffffffffe01690565b73ffffffffffffffffffffffffffffffffffffffff91821681529116602082015260408101919091526080606082018190526100d892910190610bae565b6040513d6000823e3d90fd5b610c5d610c576100d89290565b60e01b90565b7fffffffff000000000000000000000000000000000000000000000000000000001690565b9092833b610c97610c93600061048c565b9190565b14928315610cad575b5050506100c29150610485565b6020929350610cc1610897610cf09661051f565b90600063150b7a0295610cd360405190565b97889586948593610ce48b60e01b90565b85523360048601610c00565b03925af1908115610d7c576100c292600092610d43575b50610d14610d3a91610c4a565b917fffffffff000000000000000000000000000000000000000000000000000000001690565b14388080610ca0565b610d3a919250610d6d610d149160203d602011610d75575b610d6581836102d9565b810190610b77565b929150610d07565b503d610d5b565b610c3e56",
    "linkReferences": {}
  },
  "methodIdentifiers": {
    "approve(address,uint256)": "095ea7b3",
    "balanceOf(address)": "70a08231",
    "getApproved(uint256)": "081812fc",
    "isApprovedForAll(address,address)": "e985e9c5",
    "ownerOf(uint256)": "6352211e",
    "safeTransferFrom(address,address,uint256)": "42842e0e",
    "safeTransferFrom(address,address,uint256,bytes)": "b88d4fde",
    "setApprovalForAll(address,bool)": "a22cb465",
    "transferFrom(address,address,uint256)": "23b872dd"
  },
  "id": 3
}