{
  "abi": [
    {
      "inputs": [
        {
          "internalType": "uint256",
          "name": "tokenId",
          "type": "uint256"
        }
      ],
      "name": "getRoyalties",
      "outputs": [
        {
          "internalType": "address[]",
          "name": "",
          "type": "address[]"
        },
        {
          "internalType": "uint256[]",
          "name": "",
          "type": "uint256[]"
        }
      ],
      "stateMutability": "view",
      "type": "function"
    },
    {
      "inputs": [
        {
          "internalType": "uint256",
          "name": "_tokenId",
          "type": "uint256"
        }
      ],
      "name": "isSecondaryMarket",
      "outputs": [
        {
          "internalType": "bool",
          "name": "",
          "type": "bool"
        }
      ],
      "stateMutability": "view",
      "type": "function"
    },
    {
      "inputs": [
        {
          "internalType": "uint256",
          "name": "_tokenId",
          "type": "uint256"
        }
      ],
      "name": "ninfaRoyaltyInfo",
      "outputs": [
        {
          "internalType": "address[]",
          "name": "recipients",
          "type": "address[]"
        },
        {
          "internalType": "uint16[]",
          "name": "bps",
          "type": "uint16[]"
        }
      ],
      "stateMutability": "nonpayable",
      "type": "function"
    },
    {
      "inputs": [
        {
          "internalType": "uint256",
          "name": "_tokenId",
          "type": "uint256"
        },
        {
          "internalType": "uint256",
          "name": "_value",
          "type": "uint256"
        }
      ],
      "name": "royaltyInfo",
      "outputs": [
        {
          "internalType": "address",
          "name": "recipient",
          "type": "address"
        },
        {
          "internalType": "uint256",
          "name": "value",
          "type": "uint256"
        }
      ],
      "stateMutability": "view",
      "type": "function"
    }
  ],
  "bytecode": {
    "object": "0x60806040523461001a57604051610eeb6100208239610eeb90f35b600080fdfe6080604052600436101561001257600080fd5b60003560e01c80632a55205a146100525780638c3f41b81461004d578063990d2fd1146100485763bb3bafd603610057576102a4565b610214565b6101e6565b6100cc565b600080fd5b905035905b565b91906040838203126100575761008690602061007f828661005c565b940161005c565b90565b73ffffffffffffffffffffffffffffffffffffffff1690565b73ffffffffffffffffffffffffffffffffffffffff90911681526040810192916100619160200152565b34610057576100e56100df366004610063565b906103d1565b906100fb6100f260405190565b928392836100a2565b0390f35b90602082820312610057576100869161005c565b9061013361012c610122845190565b8084529260200190565b9260200190565b9060005b8181106101445750505090565b909192610177610170600192865173ffffffffffffffffffffffffffffffffffffffff16815260200190565b9460200190565b929101610137565b9061018e61012c610122845190565b9060005b81811061019f5750505090565b9091926101b9610170600192865161ffff16815260200190565b929101610192565b60408082526100869391926101d891840190610113565b91602081840391015261017f565b34610057576101fe6101f93660046100ff565b6104dc565b906100fb61020b60405190565b928392836101c1565b34610057576100fb61022f61022a3660046100ff565b610518565b60405191829182901515815260200190565b9061025061012c610122845190565b9060005b8181106102615750505090565b9091926102776101706001928651815260200190565b929101610254565b604080825261008693919261029691840190610113565b916020818403910152610241565b34610057576102bc6102b73660046100ff565b61054d565b906100fb6102c960405190565b9283928361027f565b6100866100866100869290565b906102e9906102d2565b600052602052604060002090565b610086905b61ffff1690565b61008690546102f7565b6102fc6100866100869290565b6100866100866100869261ffff1690565b7f4e487b7100000000000000000000000000000000000000000000000000000000600052601160045260246000fd5b8181029291811591840414171561036d57565b61032b565b61008661271061030d565b7f4e487b7100000000000000000000000000000000000000000000000000000000600052601260045260246000fd5b906103b6565b9190565b9081156103c1570490565b61037d565b6100866103e861030d565b91906000926103ff846103e483826102df565b015473ffffffffffffffffffffffffffffffffffffffff1690565b93610415600361040f84846102df565b01610303565b6104296104218361030d565b9161ffff1690565b0361045d57505061044c610086916104476104426103c6565b61031a565b61035a565b610457610442610372565b906103ac565b91610447610442600361040f61044c95610086976102df565b1561047d57565b6040517f08c379a000000000000000000000000000000000000000000000000000000000815260206004820152600c60248201527f496e76616c69642063616c6c00000000000000000000000000000000000000006044820152606490fd5b6104fd906104f8333b6104f26103b260006102d2565b11610476565b610c5e565b9091565b6100869060101c60ff1690565b6100869054610501565b600361053161008692610529600090565b5060006102df565b0161050e565b6100896100866100869290565b61008690610537565b600061055d816103e484826102df565b61058661056c61008984610544565b9173ffffffffffffffffffffffffffffffffffffffff1690565b1461059557506104fd90610e12565b80fd5b906105b36105a7610122845490565b92600052602060002090565b9060005b8181106105c45750505090565b90919261061361060c6001926105ee875473ffffffffffffffffffffffffffffffffffffffff1690565b73ffffffffffffffffffffffffffffffffffffffff16815260200190565b9460010190565b9291016105b7565b9061008691610598565b7f4e487b7100000000000000000000000000000000000000000000000000000000600052604160045260246000fd5b90601f017fffffffffffffffffffffffffffffffffffffffffffffffffffffffffffffffe016810190811067ffffffffffffffff82111761069457604052565b610625565b906100616106b3926106aa60405190565b9384809261061b565b0383610654565b61008690610699565b6100869060101c6102fc565b6100869060201c6102fc565b6100869060301c6102fc565b6100869060401c6102fc565b6100869060501c6102fc565b6100869060601c6102fc565b6100869060701c6102fc565b6100869060801c6102fc565b6100869060901c6102fc565b6100869060a01c6102fc565b6100869060b01c6102fc565b6100869060c01c6102fc565b6100869060d01c6102fc565b6100869060e01c6102fc565b6100869060f01c6102fc565b906107866105a7610122845490565b906000915b600f830182116109ef5754908083106109d2575b8083106109b5575b808310610998575b80831061097b575b80831061095e575b808310610941575b808310610924575b808310610907575b8083106108ea575b8083106108cd575b8083106108b0575b808310610893575b808310610876575b808310610859575b80831061083c575b821061081a57505090565b826108356001939461082d60209461076b565b61ffff169052565b0191505090565b919260208161085060019361082d8661075f565b0193019161080f565b919260208161086d60019361082d86610753565b01930191610807565b919260208161088a60019361082d86610747565b019301916107ff565b91926020816108a760019361082d8661073b565b019301916107f7565b91926020816108c460019361082d8661072f565b019301916107ef565b91926020816108e160019361082d86610723565b019301916107e7565b91926020816108fe60019361082d86610717565b019301916107df565b919260208161091b60019361082d8661070b565b019301916107d7565b919260208161093860019361082d866106ff565b019301916107cf565b919260208161095560019361082d866106f3565b019301916107c7565b919260208161097260019361082d866106e7565b019301916107bf565b919260208161098f60019361082d866106db565b019301916107b7565b91926020816109ac60019361082d866106cf565b019301916107af565b91926020816109c960019361082d866106c3565b019301916107a7565b91926020816109e660019361082d866102f7565b0193019161079f565b92835490806109fd836102f7565b61ffff16905260200180610a10836106c3565b61ffff16905260200180610a23836106cf565b61ffff16905260200180610a36836106db565b61ffff16905260200180610a49836106e7565b61ffff16905260200180610a5c836106f3565b61ffff16905260200180610a6f836106ff565b61ffff16905260200180610a828361070b565b61ffff16905260200180610a9583610717565b61ffff16905260200180610aa883610723565b61ffff16905260200180610abb8361072f565b61ffff16905260200180610ace8361073b565b61ffff16905260200180610ae183610747565b61ffff16905260200180610af483610753565b61ffff16905260200180610b078361075f565b61ffff169052602001610b1a819261076b565b61ffff16905260200192600101916010019161078b565b9061008691610777565b906100616106b392610b4c60405190565b93848092610b31565b61008690610b3b565b90610061610b6b60405190565b9283610654565b67ffffffffffffffff81116106945760208091020190565b90610b9c610b9783610b72565b610b5e565b918252565b369037565b90610061610bbc610bb684610b8a565b93610b72565b7fffffffffffffffffffffffffffffffffffffffffffffffffffffffffffffffe00160208401610ba1565b7f4e487b7100000000000000000000000000000000000000000000000000000000600052603260045260246000fd5b90610c1f825190565b811015610c30576020809102010190565b610be7565b90610c45610086610c5a92151590565b82549062ff00009060101b9181191691161790565b9055565b60609182916000610c74600361053184846102df565b81151590151503610c96576003610c90610061936001936102df565b01610c35565b93509150610ca9600361040f84866102df565b610cb56104218561030d565b03610d3957610061610cc760016102d2565b93610d30610cd486610ba6565b610d1f610ce18298610ba6565b91610d04610cf4866103e4869b826102df565b91610cfe876102d2565b90610c16565b9073ffffffffffffffffffffffffffffffffffffffff169052565b610cfe610d2a6103c6565b936102d2565b9061ffff169052565b906002610d5e82610d586001610d5261008696896102df565b016106ba565b956102df565b01610b55565b61008660a0610b5e565b90610061610e006003610d7f610d64565b94610dbb610da1825473ffffffffffffffffffffffffffffffffffffffff1690565b73ffffffffffffffffffffffffffffffffffffffff168752565b610dd1610dca60018301610699565b6020880152565b610de7610de060028301610b3b565b6040880152565b610531610df5838301610303565b61ffff166060880152565b15156080840152565b61008690610d6e565b600091610e27610e2283856102df565b610e09565b6020810190610e3582515190565b91610e3f866102d2565b8303610e8057505050610061610e5560016102d2565b93610e7d610e6286610ba6565b610e6f610ce18298610ba6565b610cfe610d2a6104426103c6565b52565b9092949193505190610e9184610ba6565b94610e9c86926102d2565b855b811015610ee257610edb81610ed5610ecb610442610ec3610e9e9660408c0151610c16565b5161ffff1690565b610e7d838c610c16565b60010190565b9050610e9c565b5092509250925056",
    "linkReferences": {}
  },
  "methodIdentifiers": {
    "getRoyalties(uint256)": "bb3bafd6",
    "isSecondaryMarket(uint256)": "990d2fd1",
    "ninfaRoyaltyInfo(uint256)": "8c3f41b8",
    "royaltyInfo(uint256,uint256)": "2a55205a"
  },
  "id": 11
}