{
  "abi": [
    {
      "inputs": [],
      "stateMutability": "nonpayable",
      "type": "constructor"
    },
    {
      "anonymous": false,
      "inputs": [
        {
          "indexed": false,
          "internalType": "address",
          "name": "master",
          "type": "address"
        },
        {
          "indexed": false,
          "internalType": "address",
          "name": "instance",
          "type": "address"
        },
        {
          "indexed": false,
          "internalType": "address",
          "name": "owner",
          "type": "address"
        }
      ],
      "name": "NewClone",
      "type": "event"
    },
    {
      "anonymous": false,
      "inputs": [
        {
          "indexed": false,
          "internalType": "bytes32",
          "name": "role",
          "type": "bytes32"
        },
        {
          "indexed": false,
          "internalType": "bytes32",
          "name": "previousAdminRole",
          "type": "bytes32"
        },
        {
          "indexed": false,
          "internalType": "bytes32",
          "name": "newAdminRole",
          "type": "bytes32"
        }
      ],
      "name": "RoleAdminChanged",
      "type": "event"
    },
    {
      "anonymous": false,
      "inputs": [
        {
          "indexed": false,
          "internalType": "bytes32",
          "name": "role",
          "type": "bytes32"
        },
        {
          "indexed": false,
          "internalType": "address",
          "name": "account",
          "type": "address"
        },
        {
          "indexed": false,
          "internalType": "address",
          "name": "sender",
          "type": "address"
        }
      ],
      "name": "RoleGranted",
      "type": "event"
    },
    {
      "anonymous": false,
      "inputs": [
        {
          "indexed": false,
          "internalType": "bytes32",
          "name": "role",
          "type": "bytes32"
        },
        {
          "indexed": false,
          "internalType": "address",
          "name": "account",
          "type": "address"
        },
        {
          "indexed": false,
          "internalType": "address",
          "name": "sender",
          "type": "address"
        }
      ],
      "name": "RoleRevoked",
      "type": "event"
    },
    {
      "inputs": [
        {
          "internalType": "address",
          "name": "_instance",
          "type": "address"
        },
        {
          "internalType": "bytes32",
          "name": "_salt",
          "type": "bytes32"
        },
        {
          "internalType": "bytes",
          "name": "_data",
          "type": "bytes"
        }
      ],
      "name": "clone",
      "outputs": [
        {
          "internalType": "address",
          "name": "clone_",
          "type": "address"
        }
      ],
      "stateMutability": "nonpayable",
      "type": "function"
    },
    {
      "inputs": [
        {
          "internalType": "address",
          "name": "_instance",
          "type": "address"
        }
      ],
      "name": "exists",
      "outputs": [
        {
          "internalType": "bool",
          "name": "",
          "type": "bool"
        }
      ],
      "stateMutability": "view",
      "type": "function"
    },
    {
      "inputs": [
        {
          "internalType": "bytes32",
          "name": "role",
          "type": "bytes32"
        }
      ],
      "name": "getRoleAdmin",
      "outputs": [
        {
          "internalType": "bytes32",
          "name": "",
          "type": "bytes32"
        }
      ],
      "stateMutability": "view",
      "type": "function"
    },
    {
      "inputs": [
        {
          "internalType": "bytes32",
          "name": "role",
          "type": "bytes32"
        },
        {
          "internalType": "address",
          "name": "account",
          "type": "address"
        }
      ],
      "name": "grantRole",
      "outputs": [],
      "stateMutability": "nonpayable",
      "type": "function"
    },
    {
      "inputs": [
        {
          "internalType": "bytes32",
          "name": "role",
          "type": "bytes32"
        },
        {
          "internalType": "address",
          "name": "account",
          "type": "address"
        }
      ],
      "name": "hasRole",
      "outputs": [
        {
          "internalType": "bool",
          "name": "",
          "type": "bool"
        }
      ],
      "stateMutability": "view",
      "type": "function"
    },
    {
      "inputs": [
        {
          "internalType": "bytes32",
          "name": "role",
          "type": "bytes32"
        },
        {
          "internalType": "address",
          "name": "account",
          "type": "address"
        }
      ],
      "name": "renounceRole",
      "outputs": [],
      "stateMutability": "nonpayable",
      "type": "function"
    },
    {
      "inputs": [
        {
          "internalType": "bytes32",
          "name": "role",
          "type": "bytes32"
        },
        {
          "internalType": "address",
          "name": "account",
          "type": "address"
        }
      ],
      "name": "revokeRole",
      "outputs": [],
      "stateMutability": "nonpayable",
      "type": "function"
    },
    {
      "inputs": [
        {
          "internalType": "address",
          "name": "_implementation",
          "type": "address"
        },
        {
          "internalType": "bool",
          "name": "_isWhitelisted",
          "type": "bool"
        }
      ],
      "name": "setImplementation",
      "outputs": [],
      "stateMutability": "nonpayable",
      "type": "function"
    }
  ],
  "bytecode": {
    "object": "0x608060405234620000265762000014620000a0565b604051610a64620003498239610a6490f35b600080fd5b6200003b6200003b6200003b9290565b90565b6200003b60006200002b565b6200003b7f9f2df0fed2c77648de5860a4cc508cd0818c85b8b8a1ab4ceeef8d981c8956a66200002b565b6200003b7f850d585eb7f024ccee5e68e55f2c26cc72e1e6ee456acf62135757a5eb9d4a106200002b565b620000b6620000ae6200003e565b3390620001a8565b620000da620000c46200004a565b620000ae620000d262000075565b80926200027c565b565b90620000e8906200003b565b600052602052604060002090565b6200003b906200010c906001600160a01b031682565b6001600160a01b031690565b6200003b90620000f6565b6200003b9062000118565b90620000e89062000123565b9060ff905b9181191691161790565b151590565b90620001626200003b6200016a9262000149565b82546200013a565b9055565b9052565b6200016e906200010c565b908152606081019392620000da929091604091620001a090602083019062000172565b019062000172565b620001bc620001b88383620002e9565b1590565b620001c5575050565b816200020d6001620002077f2f8788117e7eff1d82e926ec794901d17c78024a50270940304540a733656f0d956000620002008782620000dc565b016200012e565b6200014e565b620002276200021b60405190565b9283923391846200017d565b0390a1565b90600019906200013f565b90620002516200024b6200016a926200003b565b6200003b565b82546200022c565b908152606081019392620000da92909160409162000278906020830152565b0152565b907fbd79b86ffe0ab8e8776151514217cd7cacd52c909f66475c3af44e129f0b00ff9162000227620002ae8262000324565b92620002ca816001620002c3866000620000dc565b0162000237565b6040519384938462000259565b60ff1690565b6200003b9054620002d7565b6200003b916000620002006200030a9362000302600090565b5082620000dc565b620002dd565b6200003b9081565b6200003b905462000310565b6001620003416200003b9262000338600090565b506000620000dc565b016200031856fe6080604052600436101561001257600080fd5b60003560e01c8063248a9ca3146100925780632f2ff15d1461008d57806336568abe1461008857806391d1485414610083578063adabb4a31461007e578063bb30a97414610079578063d547741f146100745763f6a3d24e03610097576102fe565b6102d1565b6102b8565b61023a565b610196565b61017d565b61015f565b6100cb565b600080fd5b805b0361009757565b905035906100b28261009c565b565b90602082820312610097576100c8916100a5565b90565b34610097576100f66100e66100e13660046100b4565b61033a565b6040519182918290815260200190565b0390f35b73ffffffffffffffffffffffffffffffffffffffff1690565b73ffffffffffffffffffffffffffffffffffffffff811661009e565b905035906100b282610113565b9190604083820312610097576100c890602061015882866100a5565b940161012f565b346100975761017861017236600461013c565b9061037b565b604051005b346100975761017861019036600461013c565b9061038c565b34610097576100f66101b26101ac36600461013c565b906103f6565b60405191829182901515815260200190565b909182601f830112156100975781359167ffffffffffffffff831161009757602001926001830284011161009757565b9160608383031261009757610209828461012f565b9261021783602083016100a5565b92604082013567ffffffffffffffff81116100975761023692016101c4565b9091565b34610097576100f66102596102503660046101f4565b92919091610493565b6040519182918273ffffffffffffffffffffffffffffffffffffffff909116815260200190565b80151561009e565b905035906100b282610280565b9190604083820312610097576100c89060206102b1828661012f565b9401610288565b34610097576101786102cb366004610295565b90610532565b34610097576101786102e436600461013c565b90610557565b90602082820312610097576100c89161012f565b34610097576100f66101b26103143660046102ea565b610561565b905b600052602052604060002090565b6100c89081565b6100c89054610329565b60016103536100c89261034b600090565b506000610319565b01610330565b906100b29161037161036a8261033a565b339061057c565b906100b291610642565b906100b291610359565b1561009757565b6100b291906103b23373ffffffffffffffffffffffffffffffffffffffff841614610385565b6106aa565b6100fa6100c86100c89273ffffffffffffffffffffffffffffffffffffffff1690565b6100c8906103b7565b6100c8906103da565b9061031b906103e3565b6100c89160006104126104189361040b600090565b5082610319565b016103ec565b5460ff1690565b6100c86100c86100c89290565b6100c87f9f2df0fed2c77648de5860a4cc508cd0818c85b8b8a1ab4ceeef8d981c8956a661041f565b906100c89493929161046861036a61042c565b906100c8949392916104866104816104188460016103ec565b610385565b506100c8939291906108b8565b6100c8939291906000610455565b6100c8600061041f565b906100b2916104bb61036a6104a1565b610502565b906104d06100c86104fe92151590565b82547fffffffffffffffffffffffffffffffffffffffffffffffffffffffffffffff001660ff919091161790565b9055565b9061052d6100b292610526813b61052061051c600061041f565b9190565b11610385565b60016103ec565b6104c0565b906100b2916104ab565b906100b29161054d61036a8261033a565b906100b2916106aa565b906100b29161053c565b6104186100c891610570600090565b5060026103ec565b0190565b61058d91610589916103f6565b1590565b61059357565b6040517f08c379a000000000000000000000000000000000000000000000000000000000815260206004820152601760248201527f4163636f756e74206973206d697373696e6720726f6c650000000000000000006044820152606490fd5b9081526060810193926100b2929091604091610626905b73ffffffffffffffffffffffffffffffffffffffff166020830152565b019073ffffffffffffffffffffffffffffffffffffffff169052565b61064f61058983836103f6565b610657575050565b8161068e600161052d7f2f8788117e7eff1d82e926ec794901d17c78024a50270940304540a733656f0d9560006104128782610319565b6106a561069a60405190565b9283923391846105f2565b0390a1565b6106b482826103f6565b6106bc575050565b8161068e600061052d7ff6391f5c32d9c69d2a47ea670b442974b53935d1edc7fd64eb21e047a839171b95826104128782610319565b6107056106ff6100c89290565b60e01b90565b7fffffffff000000000000000000000000000000000000000000000000000000001690565b90826000939282370152565b91906107548161074d816105789560209181520190565b809561072a565b601f017fffffffffffffffffffffffffffffffffffffffffffffffffffffffffffffffe01690565b60208082526100c893910191610736565b7f4e487b7100000000000000000000000000000000000000000000000000000000600052604160045260246000fd5b90601f017fffffffffffffffffffffffffffffffffffffffffffffffffffffffffffffffe016810190811067ffffffffffffffff8211176107fc57604052565b61078d565b906100b261080e60405190565b92836107bc565b67ffffffffffffffff81116107fc57602090601f017fffffffffffffffffffffffffffffffffffffffffffffffffffffffffffffffe0160190565b9061086261085d83610815565b610801565b918252565b3d15610881576108763d610850565b903d6000602084013e565b606090565b73ffffffffffffffffffffffffffffffffffffffff90911681526060810193926100b292909160409161062690610609565b909161095060008060046109386108fc7f274b5f356634f32a865af65bdc3d8205939d9413d75e1f367652e4f3b24d0c3a989a999a6108f5600090565b50886109f3565b95610929879b61090f63439fab916106f2565b9261091960405190565b958694602086019081520161077c565b602082018103825203826107bc565b60208151910182865af161094a610867565b50610385565b610960600161052d8360026103ec565b6106a561096c60405190565b928392339184610886565b6100fa6100c86100c89290565b6100c890610977565b1561099457565b6040517f08c379a000000000000000000000000000000000000000000000000000000000815260206004820152601760248201527f455243313136373a2063726561746532206661696c65640000000000000000006044820152606490fd5b6e5af43d82803e903d91602b57fd5bf390763d602d80600a3d3981f3363d3d373d3d3d363d730000008160601b60e81c1760005260781b17602052603760096000f5906100b2610a466100fa6000610984565b73ffffffffffffffffffffffffffffffffffffffff8416141561098d56",
    "linkReferences": {}
  },
  "methodIdentifiers": {
    "clone(address,bytes32,bytes)": "adabb4a3",
    "exists(address)": "f6a3d24e",
    "getRoleAdmin(bytes32)": "248a9ca3",
    "grantRole(bytes32,address)": "2f2ff15d",
    "hasRole(bytes32,address)": "91d14854",
    "renounceRole(bytes32,address)": "36568abe",
    "revokeRole(bytes32,address)": "d547741f",
    "setImplementation(address,bool)": "bb30a974"
  },
  "id": 1
}