{
  "abi": [
    {
      "inputs": [
        {
          "internalType": "string",
          "name": "_name",
          "type": "string"
        },
        {
          "internalType": "string",
          "name": "_symbol",
          "type": "string"
        }
      ],
      "stateMutability": "nonpayable",
      "type": "constructor"
    },
    {
      "anonymous": false,
      "inputs": [
        {
          "indexed": true,
          "internalType": "address",
          "name": "owner",
          "type": "address"
        },
        {
          "indexed": true,
          "internalType": "address",
          "name": "spender",
          "type": "address"
        },
        {
          "indexed": true,
          "internalType": "uint256",
          "name": "id",
          "type": "uint256"
        }
      ],
      "name": "Approval",
      "type": "event"
    },
    {
      "anonymous": false,
      "inputs": [
        {
          "indexed": true,
          "internalType": "address",
          "name": "owner",
          "type": "address"
        },
        {
          "indexed": true,
          "internalType": "address",
          "name": "operator",
          "type": "address"
        },
        {
          "indexed": false,
          "internalType": "bool",
          "name": "approved",
          "type": "bool"
        }
      ],
      "name": "ApprovalForAll",
      "type": "event"
    },
    {
      "anonymous": false,
      "inputs": [
        {
          "indexed": true,
          "internalType": "address",
          "name": "from",
          "type": "address"
        },
        {
          "indexed": true,
          "internalType": "address",
          "name": "to",
          "type": "address"
        },
        {
          "indexed": true,
          "internalType": "uint256",
          "name": "id",
          "type": "uint256"
        }
      ],
      "name": "Transfer",
      "type": "event"
    },
    {
      "inputs": [
        {
          "internalType": "address",
          "name": "spender",
          "type": "address"
        },
        {
          "internalType": "uint256",
          "name": "id",
          "type": "uint256"
        }
      ],
      "name": "approve",
      "outputs": [],
      "stateMutability": "nonpayable",
      "type": "function"
    },
    {
      "inputs": [
        {
          "internalType": "address",
          "name": "owner",
          "type": "address"
        }
      ],
      "name": "balanceOf",
      "outputs": [
        {
          "internalType": "uint256",
          "name": "",
          "type": "uint256"
        }
      ],
      "stateMutability": "view",
      "type": "function"
    },
    {
      "inputs": [
        {
          "internalType": "uint256",
          "name": "tokenId",
          "type": "uint256"
        }
      ],
      "name": "burn",
      "outputs": [],
      "stateMutability": "nonpayable",
      "type": "function"
    },
    {
      "inputs": [
        {
          "internalType": "uint256",
          "name": "",
          "type": "uint256"
        }
      ],
      "name": "getApproved",
      "outputs": [
        {
          "internalType": "address",
          "name": "",
          "type": "address"
        }
      ],
      "stateMutability": "view",
      "type": "function"
    },
    {
      "inputs": [
        {
          "internalType": "uint256",
          "name": "_tokenId",
          "type": "uint256"
        }
      ],
      "name": "getRecipients",
      "outputs": [
        {
          "components": [
            {
              "internalType": "address",
              "name": "recipient",
              "type": "address"
            },
            {
              "internalType": "uint24",
              "name": "bps",
              "type": "uint24"
            }
          ],
          "internalType": "struct MockERC721SovereignV1.Recipient[]",
          "name": "",
          "type": "tuple[]"
        }
      ],
      "stateMutability": "view",
      "type": "function"
    },
    {
      "inputs": [
        {
          "internalType": "address",
          "name": "",
          "type": "address"
        },
        {
          "internalType": "address",
          "name": "",
          "type": "address"
        }
      ],
      "name": "isApprovedForAll",
      "outputs": [
        {
          "internalType": "bool",
          "name": "",
          "type": "bool"
        }
      ],
      "stateMutability": "view",
      "type": "function"
    },
    {
      "inputs": [
        {
          "internalType": "address",
          "name": "to",
          "type": "address"
        },
        {
          "internalType": "uint256",
          "name": "tokenId",
          "type": "uint256"
        },
        {
          "internalType": "uint24",
          "name": "royaltyBps_",
          "type": "uint24"
        },
        {
          "internalType": "uint24[]",
          "name": "recipientsBps_",
          "type": "uint24[]"
        },
        {
          "internalType": "address[]",
          "name": "royaltyRecipients_",
          "type": "address[]"
        }
      ],
      "name": "mint",
      "outputs": [],
      "stateMutability": "nonpayable",
      "type": "function"
    },
    {
      "inputs": [],
      "name": "name",
      "outputs": [
        {
          "internalType": "string",
          "name": "",
          "type": "string"
        }
      ],
      "stateMutability": "view",
      "type": "function"
    },
    {
      "inputs": [
        {
          "internalType": "uint256",
          "name": "id",
          "type": "uint256"
        }
      ],
      "name": "ownerOf",
      "outputs": [
        {
          "internalType": "address",
          "name": "owner",
          "type": "address"
        }
      ],
      "stateMutability": "view",
      "type": "function"
    },
    {
      "inputs": [
        {
          "internalType": "uint256",
          "name": "_tokenId",
          "type": "uint256"
        },
        {
          "internalType": "uint256",
          "name": "_salePrice",
          "type": "uint256"
        }
      ],
      "name": "royaltyInfo",
      "outputs": [
        {
          "internalType": "address",
          "name": "recipient",
          "type": "address"
        },
        {
          "internalType": "uint256",
          "name": "royaltyAmount",
          "type": "uint256"
        }
      ],
      "stateMutability": "view",
      "type": "function"
    },
    {
      "inputs": [
        {
          "internalType": "address",
          "name": "to",
          "type": "address"
        },
        {
          "internalType": "uint256",
          "name": "tokenId",
          "type": "uint256"
        },
        {
          "internalType": "bytes",
          "name": "data",
          "type": "bytes"
        }
      ],
      "name": "safeMint",
      "outputs": [],
      "stateMutability": "nonpayable",
      "type": "function"
    },
    {
      "inputs": [
        {
          "internalType": "address",
          "name": "to",
          "type": "address"
        },
        {
          "internalType": "uint256",
          "name": "tokenId",
          "type": "uint256"
        }
      ],
      "name": "safeMint",
      "outputs": [],
      "stateMutability": "nonpayable",
      "type": "function"
    },
    {
      "inputs": [
        {
          "internalType": "address",
          "name": "from",
          "type": "address"
        },
        {
          "internalType": "address",
          "name": "to",
          "type": "address"
        },
        {
          "internalType": "uint256",
          "name": "id",
          "type": "uint256"
        }
      ],
      "name": "safeTransferFrom",
      "outputs": [],
      "stateMutability": "nonpayable",
      "type": "function"
    },
    {
      "inputs": [
        {
          "internalType": "address",
          "name": "from",
          "type": "address"
        },
        {
          "internalType": "address",
          "name": "to",
          "type": "address"
        },
        {
          "internalType": "uint256",
          "name": "id",
          "type": "uint256"
        },
        {
          "internalType": "bytes",
          "name": "data",
          "type": "bytes"
        }
      ],
      "name": "safeTransferFrom",
      "outputs": [],
      "stateMutability": "nonpayable",
      "type": "function"
    },
    {
      "inputs": [
        {
          "internalType": "address",
          "name": "operator",
          "type": "address"
        },
        {
          "internalType": "bool",
          "name": "approved",
          "type": "bool"
        }
      ],
      "name": "setApprovalForAll",
      "outputs": [],
      "stateMutability": "nonpayable",
      "type": "function"
    },
    {
      "inputs": [
        {
          "internalType": "bytes4",
          "name": "interfaceId",
          "type": "bytes4"
        }
      ],
      "name": "supportsInterface",
      "outputs": [
        {
          "internalType": "bool",
          "name": "",
          "type": "bool"
        }
      ],
      "stateMutability": "view",
      "type": "function"
    },
    {
      "inputs": [],
      "name": "symbol",
      "outputs": [
        {
          "internalType": "string",
          "name": "",
          "type": "string"
        }
      ],
      "stateMutability": "view",
      "type": "function"
    },
    {
      "inputs": [
        {
          "internalType": "uint256",
          "name": "",
          "type": "uint256"
        }
      ],
      "name": "tokenURI",
      "outputs": [
        {
          "internalType": "string",
          "name": "",
          "type": "string"
        }
      ],
      "stateMutability": "pure",
      "type": "function"
    },
    {
      "inputs": [
        {
          "internalType": "address",
          "name": "from",
          "type": "address"
        },
        {
          "internalType": "address",
          "name": "to",
          "type": "address"
        },
        {
          "internalType": "uint256",
          "name": "id",
          "type": "uint256"
        }
      ],
      "name": "transferFrom",
      "outputs": [],
      "stateMutability": "nonpayable",
      "type": "function"
    }
  ],
  "bytecode": {
    "object": "0x60806040523462000031576200001f6200001862000175565b906200019c565b604051612362620003b9823961236290f35b600080fd5b634e487b7160e01b600052604160045260246000fd5b90601f01601f191681019081106001600160401b038211176200006e57604052565b62000036565b906200008b6200008360405190565b92836200004c565b565b6001600160401b0381116200006e57602090601f01601f19160190565b60005b838110620000be5750506000910152565b8181015183820152602001620000ad565b90929192620000e8620000e2826200008d565b62000074565b938185528183011162000031576200008b916020850190620000aa565b9080601f83011215620000315781516200012292602001620000cf565b90565b919091604081840312620000315780516001600160401b0381116200003157836200015291830162000105565b60208201519093906001600160401b038111620000315762000122920162000105565b620001986200271b803803806200018c8162000074565b92833981019062000125565b9091565b906200008b916200039e565b634e487b7160e01b600052602260045260246000fd5b9060016002830492168015620001e1575b6020831014620001db57565b620001a8565b91607f1691620001cf565b6200012262000122620001229290565b919062000211620001226200022993620001ec565b90835460001960089290920291821b191691901b1790565b9055565b6200008b91600091620001fc565b81811062000247575050565b806200025760006001936200022d565b016200023b565b9190601f81116200026e57505050565b620002826200008b93600052602060002090565b906020601f840181900483019310620002a6575b6020601f9091010401906200023b565b909150819062000296565b90620002bb815190565b906001600160401b0382116200006e57620002e382620002dc8554620001be565b856200025e565b602090601f831160011462000322576200022992916000918362000316575b5050600019600883021c1916906002021790565b01519050388062000302565b601f198316916200033885600052602060002090565b9260005b81811062000379575091600293918560019694106200035f575b50505002019055565b01516000196008601f8516021c1916905538808062000356565b919360206001819287870151815501950192016200033c565b906200008b91620002b1565b90620003b06200008b92600062000392565b60016200039256fe6080604052600436101561001257600080fd5b60003560e01c806301ffc9a71461014257806306fdde031461013d578063081812fc14610138578063095ea7b31461013357806323b872dd1461012e5780632a55205a1461012957806342842e0e1461012457806342966c681461011f5780636352211e1461011a57806370a08231146101155780638832e6e31461011057806395d89b411461010b578063a144819414610106578063a22cb46514610101578063b36d498d146100fc578063b88d4fde146100f7578063c87b56dd146100f2578063e985e9c5146100ed5763fd90e8970361014757610b2c565b610a79565b6109c3565b6109a7565b610908565b61082f565b6107de565b6107c3565b61079e565b61068c565b61065d565b610645565b61062c565b6105fd565b6105a9565b610562565b610502565b610434565b6101a1565b600080fd5b7fffffffff0000000000000000000000000000000000000000000000000000000081165b0361014757565b905035906101848261014c565b565b906020828203126101475761019a91610177565b90565b9052565b34610147576101cf6101bc6101b7366004610186565b610b8b565b6040515b91829182901515815260200190565b0390f35b600091031261014757565b7f4e487b7100000000000000000000000000000000000000000000000000000000600052600060045260246000fd5b7f4e487b7100000000000000000000000000000000000000000000000000000000600052602260045260246000fd5b906001600283049216801561025c575b602083101461025757565b61020d565b91607f169161024c565b805460009392916102836102798361023c565b8085529360200190565b91600181169081156102d5575060011461029c57505050565b6102af9192939450600052602060002090565b916000925b8184106102c15750500190565b8054848401526020909301926001016102b4565b92949550505060ff1916825215156020020190565b9061019a91610266565b7f4e487b7100000000000000000000000000000000000000000000000000000000600052604160045260246000fd5b90601f017fffffffffffffffffffffffffffffffffffffffffffffffffffffffffffffffe016810190811067ffffffffffffffff82111761036357604052565b6102f4565b906101846103829261037960405190565b938480926102ea565b0383610323565b9060001061039a5761019a90610368565b6101de565b61019a600080610389565b60005b8381106103bd5750506000910152565b81810151838201526020016103ad565b6103ee6103f760209361041f936103e2815190565b80835293849260200190565b958691016103aa565b601f017fffffffffffffffffffffffffffffffffffffffffffffffffffffffffffffffe01690565b0190565b602080825261019a929101906103cd565b34610147576104443660046101d3565b6101cf61044f61039f565b60405191829182610423565b80610170565b905035906101848261045b565b906020828203126101475761019a91610461565b61019a61019a61019a9290565b9061049990610482565b600052602052604060002090565b61019a916008021c5b73ffffffffffffffffffffffffffffffffffffffff1690565b9061019a91546104a7565b60006104e461019a92600461048f565b6104c9565b61019d906104b0565b60208101929161018491906104e9565b34610147576101cf61051d61051836600461046e565b6104d4565b604051918291826104f2565b610170816104b0565b9050359061018482610529565b91906040838203126101475761019a90602061055b8286610532565b9401610461565b346101475761057b61057536600461053f565b90610d0c565b604051005b90916060828403126101475761019a6105998484610532565b93604061055b8260208701610532565b346101475761057b6105bc366004610580565b91610f4d565b91906040838203126101475761019a90602061055b8286610461565b9160206101849294936105f9604082019660008301906104e9565b0152565b34610147576106166106103660046105c2565b906111e5565b906101cf61062360405190565b928392836105de565b346101475761057b61063f366004610580565b91611321565b346101475761057b61065836600461046e565b61140d565b34610147576101cf61051d61067336600461046e565b61147c565b906020828203126101475761019a91610532565b34610147576101cf6106a76106a2366004610678565b61151b565b6040519182918290815260200190565b906101846106c460405190565b9283610323565b67ffffffffffffffff811161036357602090601f017fffffffffffffffffffffffffffffffffffffffffffffffffffffffffffffffe0160190565b90826000939282370152565b90929192610727610722826106cb565b6106b7565b938185528183011161014757610184916020850190610706565b9080601f830112156101475781602061019a93359101610712565b91606083830312610147576107718284610532565b9261077f8360208301610461565b92604082013567ffffffffffffffff81116101475761019a9201610741565b346101475761057b6107b136600461075c565b91611557565b61019a60006001610389565b34610147576107d33660046101d3565b6101cf61044f6107b7565b346101475761057b6107f136600461053f565b90611562565b801515610170565b90503590610184826107f7565b91906040838203126101475761019a9060206108288286610532565b94016107ff565b346101475761057b61084236600461080c565b9061158c565b62ffffff8116610170565b9050359061018482610848565b909182601f830112156101475781359167ffffffffffffffff831161014757602001926020830284011161014757565b909160a082840312610147576108a68383610532565b926108b48160208501610461565b926108c28260408301610853565b92606082013567ffffffffffffffff811161014757836108e3918401610860565b929093608082013567ffffffffffffffff8111610147576109049201610860565b9091565b346101475761057b61091b366004610890565b959490949391936115e3565b909182601f830112156101475781359167ffffffffffffffff831161014757602001926001830284011161014757565b906080828203126101475761096c8183610532565b9261097a8260208501610532565b926109888360408301610461565b92606082013567ffffffffffffffff8111610147576109049201610927565b346101475761057b6109ba366004610957565b93929092611647565b34610147576101cf61044f6109d936600461046e565b50606090565b91906040838203126101475761019a9060206109fb8286610532565b9401610532565b6104b061019a61019a9273ffffffffffffffffffffffffffffffffffffffff1690565b61019a90610a02565b61019a90610a25565b9061049990610a2e565b61019a916008021c5b60ff1690565b9061019a9154610a41565b610a7461019a92610a6f6000936005610a37565b610a37565b610a50565b34610147576101cf6101bc610a8f3660046109df565b90610a5b565b9060208061018493610aaf600082015160008601906104e9565b015162ffffff16910152565b9061041f81604093610a95565b90610ae8610ae1610ad7845190565b8084529260200190565b9260200190565b9060005b818110610af95750505090565b909192610b13610b0c6001928651610abb565b9460200190565b929101610aec565b602080825261019a92910190610ac8565b34610147576101cf610b47610b4236600461046e565b611bb6565b60405191829182610b1b565b610b66610b6061019a9290565b60e01b90565b7fffffffff000000000000000000000000000000000000000000000000000000001690565b610b986301ffc9a7610b53565b7fffffffff00000000000000000000000000000000000000000000000000000000821614908115610c0a575b8115610bce575090565b9050610c06610be0635b5e139f610b53565b917fffffffff000000000000000000000000000000000000000000000000000000001690565b1490565b9050610c196380ac58cd610b53565b7fffffffff0000000000000000000000000000000000000000000000000000000082161490610bc4565b61019a906104b0565b61019a9054610c43565b61019a90610a4a565b61019a9054610c56565b15610c7057565b6040517f08c379a000000000000000000000000000000000000000000000000000000000815260206004820152600e60248201527f4e4f545f415554484f52495a45440000000000000000000000000000000000006044820152606490fd5b9073ffffffffffffffffffffffffffffffffffffffff905b9181191691161790565b90610d0161019a610d0892610a2e565b8254610ccf565b9055565b90610d71610d6b610d65610d29610d2485600261048f565b610c4c565b610d32816104b0565b610d3b336104b0565b148015610da2575b610d4c90610c69565b610d6086610d5b87600461048f565b610cf1565b610a2e565b93610a2e565b91610482565b917f8c5be1e5ebec7d5bd14f71427d1e84f3dd0314c0f7b2291e5b200ac8c7c3b925610d9c60405190565b600090a4565b50610d4c610dc3610dbe610db7846005610a37565b3390610a37565b610c5f565b9050610d43565b15610dd157565b6040517f08c379a000000000000000000000000000000000000000000000000000000000815260206004820152600a60248201527f57524f4e475f46524f4d000000000000000000000000000000000000000000006044820152606490fd5b6104b061019a61019a9290565b61019a90610e30565b15610e4d57565b6040517f08c379a000000000000000000000000000000000000000000000000000000000815260206004820152601160248201527f494e56414c49445f524543495049454e540000000000000000000000000000006044820152606490fd5b61019a9081565b61019a9054610eac565b907fffffffffffffffffffffffffffffffffffffffffffffffffffffffffffffffff90610ce7565b90610ef561019a610d0892610482565b8254610ebd565b91906008610ce7910291610f2373ffffffffffffffffffffffffffffffffffffffff841b90565b921b90565b9190610f3961019a610d0893610a2e565b908354610efc565b61018491600091610f28565b610d6b610d6561105592949394610f82610f73610f6e610d2488600261048f565b6104b0565b610f7c836104b0565b14610dca565b610fa2610f92610f6e6000610e3d565b610f9b886104b0565b1415610e46565b610fab816104b0565b610fb4336104b0565b1480156110a6575b8015611080575b610fcc90610c69565b611011610fda826003610a37565b61100b610fe682610eb3565b7fffffffffffffffffffffffffffffffffffffffffffffffffffffffffffffffff0190565b90610ee5565b61103161101f876003610a37565b61100b61102b82610eb3565b60010190565b61104086610d5b87600261048f565b610d60600061105087600461048f565b610f41565b917fddf252ad1be2c89b69c2b068fc378daa952ba7f163c4a11628f55a4df523b3ef610d9c60405190565b50610fcc611095610f6e610d2488600461048f565b61109e336104b0565b149050610fc3565b506110b8610dbe610db7836005610a37565b610fbc565b7f4e487b7100000000000000000000000000000000000000000000000000000000600052603260045260246000fd5b805482101561110f57611106600191600052602060002090565b91020190600090565b6110bd565b61019a905b62ffffff1690565b61019a9054611114565b61019a61019a61019a9262ffffff1690565b7f4e487b7100000000000000000000000000000000000000000000000000000000600052601160045260246000fd5b8181029291811591840414171561117f57565b61113d565b61111961019a61019a9290565b61019a612710611184565b7f4e487b7100000000000000000000000000000000000000000000000000000000600052601260045260246000fd5b906111d5565b9190565b9081156111e0570490565b61119c565b919061123b61019a916111f6600090565b50611235611230600261122a61122261121c6000806112168d600661048f565b016110ec565b906104c9565b98600661048f565b01611121565b61112b565b9061116c565b611246611230611191565b906111cb565b905051906101848261014c565b906020828203126101475761019a9161124c565b909161019a9361129661129d9261128c608086019660008701906104e9565b60208501906104e9565b6040830152565b60608183039101526000815260200190565b6040513d6000823e3d90fd5b156112c257565b6040517f08c379a000000000000000000000000000000000000000000000000000000000815260206004820152601060248201527f554e534146455f524543495049454e54000000000000000000000000000000006044820152606490fd5b909161132e818484610f4d565b823b61133d6111d16000610482565b14918215611352575b505061018491506112bb565b60209250611365610d6061139195610a2e565b90600061137160405190565b80968195829461138563150b7a0260e01b90565b8452336004850161126d565b03925af1801561140857610184916000916113d9575b506113d17f150b7a0200000000000000000000000000000000000000000000000000000000610be0565b143880611346565b6113fb915060203d602011611401575b6113f38183610323565b810190611259565b386113a7565b503d6113e9565b6112af565b61018490611c80565b1561141d57565b6040517f08c379a000000000000000000000000000000000000000000000000000000000815260206004820152600a60248201527f4e4f545f4d494e544544000000000000000000000000000000000000000000006044820152606490fd5b610d246114939161148b600090565b50600261048f565b90610184826114ae6114a8610f6e6000610e3d565b916104b0565b1415611416565b156114bc57565b6040517f08c379a000000000000000000000000000000000000000000000000000000000815260206004820152600c60248201527f5a45524f5f4144445245535300000000000000000000000000000000000000006044820152606490fd5b61155261019a9161152a600090565b5061154b61153b610f6e6000610e3d565b611544836104b0565b14156114b5565b6003610a37565b610eb3565b906101849291611d03565b9061018491611d87565b9060ff90610ce7565b9061158561019a610d0892151590565b825461156c565b6115a48261159f83610a6f336005610a37565b611575565b7f17307eab39ab6107e8899845ad3d59bd9653f200f220920489ca2b5937696c316115de6115d4610d6533610a2e565b936101c060405190565b0390a3565b906115f681610184989796959493611ea9565b612242565b91906103f7816116128161041f9560209181520190565b8095610706565b90939161019a959361129661163a9261128c608086019860008701906104e9565b60608185039101526115fb565b909291611655818584610f4d565b833b6116646111d16000610482565b1493841561167b575b5050505061018491506112bb565b6020945061168d610d60600092610a2e565b926116ce61169a60405190565b978896879586947f150b7a020000000000000000000000000000000000000000000000000000000086523360048701611619565b03925af180156114085761018491600091611718575b5061170e7f150b7a0200000000000000000000000000000000000000000000000000000000610be0565b143880808061166d565b611731915060203d602011611401576113f38183610323565b386116e4565b61019a9060181c611119565b61019a9060301c611119565b61019a9060481c611119565b61019a9060601c611119565b61019a9060781c611119565b61019a9060901c611119565b61019a9060a81c611119565b61019a9060c01c611119565b61019a9060d81c611119565b906117be6117b2610ad7845490565b92600052602060002090565b906000915b60098301821161194a57549080831061192d575b808310611910575b8083106118f3575b8083106118d6575b8083106118b9575b80831061189c575b80831061187f575b808310611862575b808310611845575b821061182257505090565b8261183e60019394611835602094611797565b62ffffff169052565b0191505090565b91926020816118596001936118358661178b565b01930191611817565b91926020816118766001936118358661177f565b0193019161180f565b919260208161189360019361183586611773565b01930191611807565b91926020816118b060019361183586611767565b019301916117ff565b91926020816118cd6001936118358661175b565b019301916117f7565b91926020816118ea6001936118358661174f565b019301916117ef565b919260208161190760019361183586611743565b019301916117e7565b919260208161192460019361183586611737565b019301916117df565b919260208161194160019361183586611114565b019301916117d7565b92600160206118356119eb600a94838080808080808f8180915499611972816118358d611114565b01611980816118358c611737565b0161198e816118358b611743565b0161199c816118358a61174f565b016119aa816118358961175b565b016119b88161183588611767565b016119c68161183587611773565b016119d4816118358661177f565b016119e2816118358561178b565b01928391611797565b0194019201916117c3565b9061019a916117a3565b9061018461038292611a1160405190565b938480926119f6565b61019a90611a00565b9061041f816020936104e9565b90611a3f6117b2610ad7845490565b9060005b818110611a505750505090565b909192611a71611a6a600192611a6587610c4c565b611a23565b9460010190565b929101611a43565b9061019a91611a30565b9061018461038292611a9460405190565b93848092611a79565b61019a90611a83565b67ffffffffffffffff81116103635760208091020190565b90611acb61072283611aa6565b918252565b61019a60406106b7565b611ae2611ad0565b906000825260006020830152565b61019a611ada565b60005b828110611b0757505050565b602090611b12611af0565b8184015201611afb565b90610184611b32611b2c84611abe565b93611aa6565b7fffffffffffffffffffffffffffffffffffffffffffffffffffffffffffffffe00160208401611af8565b801561117f577fffffffffffffffffffffffffffffffffffffffffffffffffffffffffffffffff0190565b90611b91825190565b81101561110f576020809102010190565b61019a90516104b0565b9061019d906104b0565b90611be36000611bdd611bd56001611bcf87600661048f565b01611a1a565b94600661048f565b01611a9d565b91611bec835190565b611bf581611b1c565b9260015b15611c69575b611c0a600092611b5d565b91611c6483611c36611c24611c1f838b611b88565b611ba2565b84611c2f848b611b88565b5101611bac565b6020611c58611c51611c48848a611b88565b5162ffffff1690565b9289611b88565b51019062ffffff169052565b611bf9565b611c736000610482565b8211611bff579350505090565b611c8e610d2482600261048f565b90611055610d6b610d65611ca26000610e3d565b94611cb8611caf876104b0565b6114ae836104b0565b611cc6610fda826003610a37565b611040600061105087600261048f565b9092611cf69061129661019a969461128c608086019760008701906104e9565b60608184039101526103cd565b91611d0e8284611ea9565b823b611d1d6111d16000610482565b14918215611d3157505061018491506112bb565b60209250611d44610d6061139195610a2e565b906000611d5081610e3d565b604051968795869485937f150b7a020000000000000000000000000000000000000000000000000000000085523360048601611cd6565b90611d928183611ea9565b813b611da16111d16000610482565b14908115611db5575b5061018491506112bb565b60209150611dc8610d60611ddd94610a2e565b611dd26000610e3d565b600061137160405190565b03925af180156114085761018491600091611e24575b50611e1d7f150b7a0200000000000000000000000000000000000000000000000000000000610be0565b1438611daa565b611e3d915060203d602011611401576113f38183610323565b38611df3565b15611e4a57565b6040517f08c379a000000000000000000000000000000000000000000000000000000000815260206004820152600e60248201527f414c52454144595f4d494e5445440000000000000000000000000000000000006044820152606490fd5b90611055610d6b610d65611ebd6000610e3d565b611ec9610f92826104b0565b611eec611eda610d2487600261048f565b611ee66114a8846104b0565b14611e43565b611efa61101f876003610a37565b610d6086610d5b87600261048f565b1561014757565b919081101561110f576020020190565b3561019a81610848565b91906008610ce7910291610f237fffffffffffffffffffffffffffffffffffffffffffffffffffffffffffffffff841b90565b9190611f6e61019a610d0893610482565b908354611f2a565b61018491600091611f5d565b818110611f8d575050565b80611f9b6000600193611f76565b01611f82565b907fffffffffffffffffffffffffffffffffffffffffffffffffffffffffffffffff611fd1916020036008021c90565b8154169055565b919091828210611fe757505050565b6101849291611ffc9091600052602060002090565b9182019101611f82565b906801000000000000000081116103635781612023610184935490565b90828155611fd8565b3561019a81610529565b9067ffffffffffffffff8311610363576120596117b260019261019a8686612006565b92049160005b83811061206c5750505050565b600190602061207d61019a8661202c565b940193818401550161205f565b906101849291612036565b9190918282106120a457505050565b61018492600a600990910104906003600a6120cb6009860182900493600052602060002090565b928301940602600081116120e2575b500190611f82565b6120ef9060018503611fa1565b386120da565b906801000000000000000081116103635781612112610184935490565b90828155612095565b91906008610ce7910291610f2362ffffff841b90565b61111961019a61019a9262ffffff1690565b919067ffffffffffffffff8211610363576117b26121659161019a84866120f5565b600a82049160005b8381106121d25750600a830290036000811161218a575b50505050565b9260009360005b8181106121a657505050015538808080612184565b90919460206121c86001926121bd61019a8a611f20565b90856003029061211b565b9601929101612191565b6000805b600a81106121eb57508382015560010161216d565b9590602061220c60019261220161019a86611f20565b908a6003029061211b565b920196016121d6565b906101849291612143565b9062ffffff90610ce7565b9061223b61019a610d0892612131565b8254612220565b829692939461224f611191565b9661226662ffffff891662ffffff86161115611f09565b869761227b89612275846111d1565b14611f09565b600060015b156122d9575b6122d1906122c86122c36122bb60009d7fffffffffffffffffffffffffffffffffffffffffffffffffffffffffffffffff0190565b8c819c611f10565b611f20565b0162ffffff1690565b8a9799612280565b90919293949596506122eb6000610482565b8911156122ff579089969594939291612286565b610184985098612345612357936123306002999c61227561232761235c9b9d9762ffffff1690565b9162ffffff1690565b600695600061233f898961048f565b0161208a565b6001612351868661048f565b01612215565b61048f565b0161222b56",
    "linkReferences": {}
  },
  "methodIdentifiers": {
    "approve(address,uint256)": "095ea7b3",
    "balanceOf(address)": "70a08231",
    "burn(uint256)": "42966c68",
    "getApproved(uint256)": "081812fc",
    "getRecipients(uint256)": "fd90e897",
    "isApprovedForAll(address,address)": "e985e9c5",
    "mint(address,uint256,uint24,uint24[],address[])": "b36d498d",
    "name()": "06fdde03",
    "ownerOf(uint256)": "6352211e",
    "royaltyInfo(uint256,uint256)": "2a55205a",
    "safeMint(address,uint256)": "a1448194",
    "safeMint(address,uint256,bytes)": "8832e6e3",
    "safeTransferFrom(address,address,uint256)": "42842e0e",
    "safeTransferFrom(address,address,uint256,bytes)": "b88d4fde",
    "setApprovalForAll(address,bool)": "a22cb465",
    "supportsInterface(bytes4)": "01ffc9a7",
    "symbol()": "95d89b41",
    "tokenURI(uint256)": "c87b56dd",
    "transferFrom(address,address,uint256)": "23b872dd"
  },
  "id": 46
}