{
  "abi": [
    {
      "inputs": [
        {
          "internalType": "address",
          "name": "factory_",
          "type": "address"
        }
      ],
      "stateMutability": "nonpayable",
      "type": "constructor"
    },
    {
      "anonymous": false,
      "inputs": [
        {
          "indexed": true,
          "internalType": "address",
          "name": "owner",
          "type": "address"
        },
        {
          "indexed": true,
          "internalType": "address",
          "name": "approved",
          "type": "address"
        },
        {
          "indexed": true,
          "internalType": "uint256",
          "name": "tokenId",
          "type": "uint256"
        }
      ],
      "name": "Approval",
      "type": "event"
    },
    {
      "anonymous": false,
      "inputs": [
        {
          "indexed": true,
          "internalType": "address",
          "name": "owner",
          "type": "address"
        },
        {
          "indexed": true,
          "internalType": "address",
          "name": "operator",
          "type": "address"
        },
        {
          "indexed": false,
          "internalType": "bool",
          "name": "approved",
          "type": "bool"
        }
      ],
      "name": "ApprovalForAll",
      "type": "event"
    },
    {
      "anonymous": false,
      "inputs": [
        {
          "indexed": false,
          "internalType": "bytes32",
          "name": "role",
          "type": "bytes32"
        },
        {
          "indexed": false,
          "internalType": "bytes32",
          "name": "previousAdminRole",
          "type": "bytes32"
        },
        {
          "indexed": false,
          "internalType": "bytes32",
          "name": "newAdminRole",
          "type": "bytes32"
        }
      ],
      "name": "RoleAdminChanged",
      "type": "event"
    },
    {
      "anonymous": false,
      "inputs": [
        {
          "indexed": false,
          "internalType": "bytes32",
          "name": "role",
          "type": "bytes32"
        },
        {
          "indexed": false,
          "internalType": "address",
          "name": "account",
          "type": "address"
        },
        {
          "indexed": false,
          "internalType": "address",
          "name": "sender",
          "type": "address"
        }
      ],
      "name": "RoleGranted",
      "type": "event"
    },
    {
      "anonymous": false,
      "inputs": [
        {
          "indexed": false,
          "internalType": "bytes32",
          "name": "role",
          "type": "bytes32"
        },
        {
          "indexed": false,
          "internalType": "address",
          "name": "account",
          "type": "address"
        },
        {
          "indexed": false,
          "internalType": "address",
          "name": "sender",
          "type": "address"
        }
      ],
      "name": "RoleRevoked",
      "type": "event"
    },
    {
      "anonymous": false,
      "inputs": [
        {
          "indexed": true,
          "internalType": "address",
          "name": "from",
          "type": "address"
        },
        {
          "indexed": true,
          "internalType": "address",
          "name": "to",
          "type": "address"
        },
        {
          "indexed": true,
          "internalType": "uint256",
          "name": "tokenId",
          "type": "uint256"
        }
      ],
      "name": "Transfer",
      "type": "event"
    },
    {
      "anonymous": false,
      "inputs": [
        {
          "indexed": false,
          "internalType": "address",
          "name": "",
          "type": "address"
        },
        {
          "indexed": false,
          "internalType": "bytes32[]",
          "name": "digests",
          "type": "bytes32[]"
        }
      ],
      "name": "VoidVouchers",
      "type": "event"
    },
    {
      "inputs": [
        {
          "internalType": "address",
          "name": "to",
          "type": "address"
        },
        {
          "internalType": "uint256",
          "name": "tokenId",
          "type": "uint256"
        }
      ],
      "name": "approve",
      "outputs": [],
      "stateMutability": "nonpayable",
      "type": "function"
    },
    {
      "inputs": [
        {
          "internalType": "address",
          "name": "_owner",
          "type": "address"
        }
      ],
      "name": "balanceOf",
      "outputs": [
        {
          "internalType": "uint256",
          "name": "",
          "type": "uint256"
        }
      ],
      "stateMutability": "view",
      "type": "function"
    },
    {
      "inputs": [
        {
          "internalType": "uint256",
          "name": "_tokenId",
          "type": "uint256"
        }
      ],
      "name": "burn",
      "outputs": [],
      "stateMutability": "nonpayable",
      "type": "function"
    },
    {
      "inputs": [
        {
          "internalType": "uint256",
          "name": "_id",
          "type": "uint256"
        }
      ],
      "name": "exists",
      "outputs": [
        {
          "internalType": "bool",
          "name": "",
          "type": "bool"
        }
      ],
      "stateMutability": "view",
      "type": "function"
    },
    {
      "inputs": [
        {
          "internalType": "uint256",
          "name": "tokenId",
          "type": "uint256"
        }
      ],
      "name": "getApproved",
      "outputs": [
        {
          "internalType": "address",
          "name": "",
          "type": "address"
        }
      ],
      "stateMutability": "view",
      "type": "function"
    },
    {
      "inputs": [
        {
          "internalType": "bytes32",
          "name": "role",
          "type": "bytes32"
        }
      ],
      "name": "getRoleAdmin",
      "outputs": [
        {
          "internalType": "bytes32",
          "name": "",
          "type": "bytes32"
        }
      ],
      "stateMutability": "view",
      "type": "function"
    },
    {
      "inputs": [
        {
          "internalType": "uint256",
          "name": "tokenId",
          "type": "uint256"
        }
      ],
      "name": "getRoyalties",
      "outputs": [
        {
          "internalType": "address[]",
          "name": "",
          "type": "address[]"
        },
        {
          "internalType": "uint256[]",
          "name": "",
          "type": "uint256[]"
        }
      ],
      "stateMutability": "view",
      "type": "function"
    },
    {
      "inputs": [
        {
          "components": [
            {
              "internalType": "bytes32",
              "name": "tokenURI",
              "type": "bytes32"
            },
            {
              "internalType": "uint256",
              "name": "price",
              "type": "uint256"
            },
            {
              "internalType": "uint256",
              "name": "endTime",
              "type": "uint256"
            },
            {
              "internalType": "uint256",
              "name": "value",
              "type": "uint256"
            },
            {
              "internalType": "uint256",
              "name": "salt",
              "type": "uint256"
            },
            {
              "internalType": "address",
              "name": "buyerAddress",
              "type": "address"
            },
            {
              "internalType": "address",
              "name": "ERC1271Account",
              "type": "address"
            },
            {
              "internalType": "uint16[]",
              "name": "royaltyBps",
              "type": "uint16[]"
            },
            {
              "internalType": "uint16[]",
              "name": "commissionBps",
              "type": "uint16[]"
            },
            {
              "internalType": "address[]",
              "name": "royaltyRecipients",
              "type": "address[]"
            },
            {
              "internalType": "address[]",
              "name": "commissionRecipients",
              "type": "address[]"
            }
          ],
          "internalType": "struct EncodeType.Voucher",
          "name": "_voucher",
          "type": "tuple"
        }
      ],
      "name": "getTypedDataDigest",
      "outputs": [
        {
          "internalType": "bytes32",
          "name": "_digest",
          "type": "bytes32"
        }
      ],
      "stateMutability": "view",
      "type": "function"
    },
    {
      "inputs": [
        {
          "internalType": "bytes32",
          "name": "role",
          "type": "bytes32"
        },
        {
          "internalType": "address",
          "name": "account",
          "type": "address"
        }
      ],
      "name": "grantRole",
      "outputs": [],
      "stateMutability": "nonpayable",
      "type": "function"
    },
    {
      "inputs": [
        {
          "internalType": "bytes32",
          "name": "role",
          "type": "bytes32"
        },
        {
          "internalType": "address",
          "name": "account",
          "type": "address"
        }
      ],
      "name": "hasRole",
      "outputs": [
        {
          "internalType": "bool",
          "name": "",
          "type": "bool"
        }
      ],
      "stateMutability": "view",
      "type": "function"
    },
    {
      "inputs": [
        {
          "internalType": "bytes",
          "name": "_data",
          "type": "bytes"
        }
      ],
      "name": "initialize",
      "outputs": [],
      "stateMutability": "nonpayable",
      "type": "function"
    },
    {
      "inputs": [
        {
          "internalType": "address",
          "name": "owner",
          "type": "address"
        },
        {
          "internalType": "address",
          "name": "operator",
          "type": "address"
        }
      ],
      "name": "isApprovedForAll",
      "outputs": [
        {
          "internalType": "bool",
          "name": "",
          "type": "bool"
        }
      ],
      "stateMutability": "view",
      "type": "function"
    },
    {
      "inputs": [
        {
          "internalType": "uint256",
          "name": "_tokenId",
          "type": "uint256"
        }
      ],
      "name": "isSecondaryMarket",
      "outputs": [
        {
          "internalType": "bool",
          "name": "",
          "type": "bool"
        }
      ],
      "stateMutability": "view",
      "type": "function"
    },
    {
      "inputs": [
        {
          "components": [
            {
              "internalType": "bytes32",
              "name": "tokenURI",
              "type": "bytes32"
            },
            {
              "internalType": "uint256",
              "name": "price",
              "type": "uint256"
            },
            {
              "internalType": "uint256",
              "name": "endTime",
              "type": "uint256"
            },
            {
              "internalType": "uint256",
              "name": "value",
              "type": "uint256"
            },
            {
              "internalType": "uint256",
              "name": "salt",
              "type": "uint256"
            },
            {
              "internalType": "address",
              "name": "buyerAddress",
              "type": "address"
            },
            {
              "internalType": "address",
              "name": "ERC1271Account",
              "type": "address"
            },
            {
              "internalType": "uint16[]",
              "name": "royaltyBps",
              "type": "uint16[]"
            },
            {
              "internalType": "uint16[]",
              "name": "commissionBps",
              "type": "uint16[]"
            },
            {
              "internalType": "address[]",
              "name": "royaltyRecipients",
              "type": "address[]"
            },
            {
              "internalType": "address[]",
              "name": "commissionRecipients",
              "type": "address[]"
            }
          ],
          "internalType": "struct EncodeType.Voucher",
          "name": "_voucher",
          "type": "tuple"
        },
        {
          "internalType": "bytes",
          "name": "_signature",
          "type": "bytes"
        },
        {
          "internalType": "bytes",
          "name": "_data",
          "type": "bytes"
        },
        {
          "internalType": "address",
          "name": "_to",
          "type": "address"
        }
      ],
      "name": "lazyBuy",
      "outputs": [],
      "stateMutability": "payable",
      "type": "function"
    },
    {
      "inputs": [
        {
          "components": [
            {
              "internalType": "bytes32",
              "name": "tokenURI",
              "type": "bytes32"
            },
            {
              "internalType": "uint256",
              "name": "price",
              "type": "uint256"
            },
            {
              "internalType": "uint256",
              "name": "endTime",
              "type": "uint256"
            },
            {
              "internalType": "uint256",
              "name": "value",
              "type": "uint256"
            },
            {
              "internalType": "uint256",
              "name": "salt",
              "type": "uint256"
            },
            {
              "internalType": "address",
              "name": "buyerAddress",
              "type": "address"
            },
            {
              "internalType": "address",
              "name": "ERC1271Account",
              "type": "address"
            },
            {
              "internalType": "uint16[]",
              "name": "royaltyBps",
              "type": "uint16[]"
            },
            {
              "internalType": "uint16[]",
              "name": "commissionBps",
              "type": "uint16[]"
            },
            {
              "internalType": "address[]",
              "name": "royaltyRecipients",
              "type": "address[]"
            },
            {
              "internalType": "address[]",
              "name": "commissionRecipients",
              "type": "address[]"
            }
          ],
          "internalType": "struct EncodeType.Voucher",
          "name": "_voucher",
          "type": "tuple"
        },
        {
          "internalType": "bytes",
          "name": "_signature",
          "type": "bytes"
        },
        {
          "internalType": "bytes",
          "name": "_data",
          "type": "bytes"
        },
        {
          "internalType": "address",
          "name": "_to",
          "type": "address"
        }
      ],
      "name": "lazyMint",
      "outputs": [],
      "stateMutability": "payable",
      "type": "function"
    },
    {
      "inputs": [
        {
          "internalType": "address",
          "name": "_to",
          "type": "address"
        },
        {
          "internalType": "bytes",
          "name": "_data",
          "type": "bytes"
        }
      ],
      "name": "mint",
      "outputs": [],
      "stateMutability": "nonpayable",
      "type": "function"
    },
    {
      "inputs": [],
      "name": "name",
      "outputs": [
        {
          "internalType": "string",
          "name": "",
          "type": "string"
        }
      ],
      "stateMutability": "view",
      "type": "function"
    },
    {
      "inputs": [
        {
          "internalType": "uint256",
          "name": "_tokenId",
          "type": "uint256"
        }
      ],
      "name": "ninfaRoyaltyInfo",
      "outputs": [
        {
          "internalType": "address[]",
          "name": "recipients",
          "type": "address[]"
        },
        {
          "internalType": "uint16[]",
          "name": "bps",
          "type": "uint16[]"
        }
      ],
      "stateMutability": "nonpayable",
      "type": "function"
    },
    {
      "inputs": [
        {
          "internalType": "uint256",
          "name": "tokenId",
          "type": "uint256"
        }
      ],
      "name": "ownerOf",
      "outputs": [
        {
          "internalType": "address",
          "name": "_owner",
          "type": "address"
        }
      ],
      "stateMutability": "view",
      "type": "function"
    },
    {
      "inputs": [
        {
          "internalType": "bytes32",
          "name": "role",
          "type": "bytes32"
        },
        {
          "internalType": "address",
          "name": "account",
          "type": "address"
        }
      ],
      "name": "renounceRole",
      "outputs": [],
      "stateMutability": "nonpayable",
      "type": "function"
    },
    {
      "inputs": [
        {
          "internalType": "bytes32",
          "name": "role",
          "type": "bytes32"
        },
        {
          "internalType": "address",
          "name": "account",
          "type": "address"
        }
      ],
      "name": "revokeRole",
      "outputs": [],
      "stateMutability": "nonpayable",
      "type": "function"
    },
    {
      "inputs": [
        {
          "internalType": "uint256",
          "name": "_tokenId",
          "type": "uint256"
        },
        {
          "internalType": "uint256",
          "name": "_value",
          "type": "uint256"
        }
      ],
      "name": "royaltyInfo",
      "outputs": [
        {
          "internalType": "address",
          "name": "recipient",
          "type": "address"
        },
        {
          "internalType": "uint256",
          "name": "value",
          "type": "uint256"
        }
      ],
      "stateMutability": "view",
      "type": "function"
    },
    {
      "inputs": [
        {
          "internalType": "address",
          "name": "from",
          "type": "address"
        },
        {
          "internalType": "address",
          "name": "to",
          "type": "address"
        },
        {
          "internalType": "uint256",
          "name": "tokenId",
          "type": "uint256"
        }
      ],
      "name": "safeTransferFrom",
      "outputs": [],
      "stateMutability": "nonpayable",
      "type": "function"
    },
    {
      "inputs": [
        {
          "internalType": "address",
          "name": "_from",
          "type": "address"
        },
        {
          "internalType": "address",
          "name": "_to",
          "type": "address"
        },
        {
          "internalType": "uint256",
          "name": "_tokenId",
          "type": "uint256"
        },
        {
          "internalType": "bytes",
          "name": "_data",
          "type": "bytes"
        }
      ],
      "name": "safeTransferFrom",
      "outputs": [],
      "stateMutability": "nonpayable",
      "type": "function"
    },
    {
      "inputs": [
        {
          "internalType": "address",
          "name": "operator",
          "type": "address"
        },
        {
          "internalType": "bool",
          "name": "approved",
          "type": "bool"
        }
      ],
      "name": "setApprovalForAll",
      "outputs": [],
      "stateMutability": "nonpayable",
      "type": "function"
    },
    {
      "inputs": [
        {
          "internalType": "string",
          "name": "baseURI_",
          "type": "string"
        }
      ],
      "name": "setBaseURI",
      "outputs": [],
      "stateMutability": "nonpayable",
      "type": "function"
    },
    {
      "inputs": [
        {
          "internalType": "uint256",
          "name": "_tokenId",
          "type": "uint256"
        },
        {
          "internalType": "uint16[]",
          "name": "_royaltyBps",
          "type": "uint16[]"
        },
        {
          "internalType": "address[]",
          "name": "_royaltyRecipients",
          "type": "address[]"
        }
      ],
      "name": "setRoyaltyInfo",
      "outputs": [],
      "stateMutability": "nonpayable",
      "type": "function"
    },
    {
      "inputs": [
        {
          "internalType": "bytes4",
          "name": "interfaceId",
          "type": "bytes4"
        }
      ],
      "name": "supportsInterface",
      "outputs": [
        {
          "internalType": "bool",
          "name": "",
          "type": "bool"
        }
      ],
      "stateMutability": "pure",
      "type": "function"
    },
    {
      "inputs": [],
      "name": "symbol",
      "outputs": [
        {
          "internalType": "string",
          "name": "",
          "type": "string"
        }
      ],
      "stateMutability": "view",
      "type": "function"
    },
    {
      "inputs": [
        {
          "internalType": "uint256",
          "name": "_index",
          "type": "uint256"
        }
      ],
      "name": "tokenByIndex",
      "outputs": [
        {
          "internalType": "uint256",
          "name": "",
          "type": "uint256"
        }
      ],
      "stateMutability": "view",
      "type": "function"
    },
    {
      "inputs": [
        {
          "internalType": "address",
          "name": "_owner",
          "type": "address"
        },
        {
          "internalType": "uint256",
          "name": "_index",
          "type": "uint256"
        }
      ],
      "name": "tokenOfOwnerByIndex",
      "outputs": [
        {
          "internalType": "uint256",
          "name": "",
          "type": "uint256"
        }
      ],
      "stateMutability": "view",
      "type": "function"
    },
    {
      "inputs": [
        {
          "internalType": "uint256",
          "name": "tokenId",
          "type": "uint256"
        }
      ],
      "name": "tokenURI",
      "outputs": [
        {
          "internalType": "string",
          "name": "",
          "type": "string"
        }
      ],
      "stateMutability": "view",
      "type": "function"
    },
    {
      "inputs": [],
      "name": "totalSupply",
      "outputs": [
        {
          "internalType": "uint256",
          "name": "",
          "type": "uint256"
        }
      ],
      "stateMutability": "view",
      "type": "function"
    },
    {
      "inputs": [
        {
          "internalType": "address",
          "name": "from",
          "type": "address"
        },
        {
          "internalType": "address",
          "name": "to",
          "type": "address"
        },
        {
          "internalType": "uint256",
          "name": "tokenId",
          "type": "uint256"
        }
      ],
      "name": "transferFrom",
      "outputs": [],
      "stateMutability": "nonpayable",
      "type": "function"
    },
    {
      "inputs": [
        {
          "internalType": "bytes32[]",
          "name": "_digests",
          "type": "bytes32[]"
        }
      ],
      "name": "voidVouchers",
      "outputs": [],
      "stateMutability": "nonpayable",
      "type": "function"
    }
  ],
  "bytecode": {
    "object": "0x60e0604052346200004b576200001e62000018620000e2565b62000105565b60405161483f620002ce823960805181611fef015260a051816114c3015260c05181611f50015261483f90f35b600080fd5b634e487b7160e01b600052604160045260246000fd5b90601f01601f191681019081106001600160401b038211176200008857604052565b62000050565b90620000a56200009d60405190565b928362000066565b565b90565b6001600160a01b038116036200004b57565b90505190620000a582620000aa565b906020828203126200004b57620000a791620000bc565b620000a762004b0d80380380620000f9816200008e565b928339810190620000cb565b6200010f62000114565b60c052565b620000a56200025d565b634e487b7160e01b600052602260045260246000fd5b906001600283049216801562000157575b60208310146200015157565b6200011e565b91607f169162000145565b620000a7620000a7620000a79290565b919062000187620000a76200019f9362000162565b90835460001960089290920291821b191691901b1790565b9055565b620000a59160009162000172565b818110620001bd575050565b80620001cd6000600193620001a3565b01620001b1565b9190601f8111620001e457505050565b620001f8620000a593600052602060002090565b906020601f8401819004830193106200021c575b6020601f909101040190620001b1565b90915081906200020c565b62000240600762000239835462000134565b83620001d4565b600e66697066733a2f2f60c81b019055565b620000a59062000227565b6200026762000273565b620000a5600962000252565b620000a5620000a5620000a5620000a57f8cad95687ba82c2ce50e74f7b754645e5117c3a5bec8151c0726d5857980a8666080527fe1b317ae14e3af34085dd8529edfb0af416616d53348dc310331e716d501554260a05256fe6080604052600436101561001257600080fd5b60003560e01c806301ffc9a71461024257806306fdde031461023d578063081812fc14610238578063095ea7b3146102335780631177dcdc1461022e57806318160ddd1461022957806323b872dd14610224578063248a9ca31461021f5780632a55205a1461021a5780632f2ff15d146102155780632f745c59146102105780632f8983d31461020b57806336568abe14610206578063422b0d251461020157806342842e0e146101fc57806342966c68146101f7578063439fab91146101f257806343b8736c146101ed5780634f558e79146101e85780634f6ccce7146101e357806355f804b3146101de5780636352211e146101d957806370a08231146101d45780638c3f41b8146101cf57806391d14854146101ca57806392cb4208146101c557806395d89b41146101c0578063990d2fd1146101bb578063a22cb465146101b6578063b510391f146101b1578063b88d4fde146101ac578063bb3bafd6146101a7578063c87b56dd146101a2578063d547741f1461019d5763e985e9c50361024757610fc1565b610f8c565b610f71565b610f43565b610ec4565b610e5b565b610d80565b610d2d565b610d12565b610ced565b610c7b565b610c4d565b610b5f565b610b30565b610b17565b610afc565b610ae1565b610ac7565b610aae565b610a6c565b610a53565b610a39565b610974565b61095b565b6107d2565b6107b9565b610767565b610702565b6106e9565b6106a4565b610679565b610626565b610598565b610531565b61029d565b600080fd5b7fffffffff0000000000000000000000000000000000000000000000000000000081165b0361024757565b905035906102848261024c565b565b906020828203126102475761029a91610277565b90565b34610247576102cb6102b86102b3366004610286565b611015565b6040515b91829182901515815260200190565b0390f35b600091031261024757565b7f4e487b7100000000000000000000000000000000000000000000000000000000600052600060045260246000fd5b7f4e487b7100000000000000000000000000000000000000000000000000000000600052602260045260246000fd5b9060016002830492168015610358575b602083101461035357565b610309565b91607f1691610348565b8054600093929161037f61037583610338565b8085529360200190565b91600181169081156103d1575060011461039857505050565b6103ab9192939450600052602060002090565b916000925b8184106103bd5750500190565b8054848401526020909301926001016103b0565b92949550505060ff1916825215156020020190565b9061029a91610362565b7f4e487b7100000000000000000000000000000000000000000000000000000000600052604160045260246000fd5b90601f017fffffffffffffffffffffffffffffffffffffffffffffffffffffffffffffffe016810190811067ffffffffffffffff82111761045f57604052565b6103f0565b9061028461047e9261047560405190565b938480926103e6565b038361041f565b906000106104965761029a90610464565b6102da565b61029a60006007610485565b60005b8381106104ba5750506000910152565b81810151838201526020016104aa565b6104eb6104f460209361051c936104df815190565b80835293849260200190565b958691016104a7565b601f017fffffffffffffffffffffffffffffffffffffffffffffffffffffffffffffffe01690565b0190565b602080825261029a929101906104ca565b34610247576105413660046102cf565b6102cb61054c61049b565b60405191829182610520565b80610270565b9050359061028482610558565b906020828203126102475761029a9161055e565b73ffffffffffffffffffffffffffffffffffffffff1690565b34610247576102cb6105b36105ae36600461056b565b6111b9565b6040519182918273ffffffffffffffffffffffffffffffffffffffff909116815260200190565b73ffffffffffffffffffffffffffffffffffffffff8116610270565b90503590610284826105da565b91906040838203126102475761029a90602061061f82866105f6565b940161055e565b346102475761063f610639366004610603565b9061124f565b604051005b90816101609103126102475790565b9060208282031261024757813567ffffffffffffffff81116102475761029a9201610644565b34610247576102cb61069461068f366004610653565b6114a3565b6040519182918290815260200190565b34610247576106b43660046102cf565b6102cb61069460045490565b90916060828403126102475761029a6106d984846105f6565b93604061061f82602087016105f6565b346102475761063f6106fc3660046106c0565b9161163d565b34610247576102cb61069461071836600461056b565b61165b565b91906040838203126102475761029a90602061061f828661055e565b73ffffffffffffffffffffffffffffffffffffffff90911681526040810192916102849160200152565b0152565b346102475761078061077a36600461071d565b90611754565b906102cb61078d60405190565b92839283610739565b91906040838203126102475761029a9060206107b2828661055e565b94016105f6565b346102475761063f6107cc366004610796565b9061181a565b34610247576102cb6106946107e8366004610603565b90611824565b906102846107fb60405190565b928361041f565b67ffffffffffffffff811161045f5760208091020190565b61ffff8116610270565b905035906102848261081a565b9092919261084661084182610802565b6107ee565b938185526020808601920283019281841161024757915b83831061086a5750505050565b602080916108788486610824565b81520192019161085d565b9080601f830112156102475781602061029a93359101610831565b909291926108ae61084182610802565b938185526020808601920283019281841161024757915b8383106108d25750505050565b602080916108e084866105f6565b8152019201916108c5565b9080601f830112156102475781602061029a9335910161089e565b916060838303126102475761091b828461055e565b92602081013567ffffffffffffffff8111610247578361093c918301610883565b92604082013567ffffffffffffffff81116102475761029a92016108eb565b346102475761063f61096e366004610906565b91611857565b346102475761063f610987366004610796565b9061187e565b909182601f830112156102475781359167ffffffffffffffff831161024757602001926001830284011161024757565b919060808382031261024757823567ffffffffffffffff811161024757816109e6918501610644565b92602081013567ffffffffffffffff81116102475782610a0791830161098d565b929093604083013567ffffffffffffffff81116102475782610a3060609461029a93870161098d565b949095016105f6565b61063f610a473660046109bd565b949390939291926119fa565b346102475761063f610a663660046106c0565b91611b8f565b346102475761063f610a7f36600461056b565b611ba3565b9060208282031261024757813567ffffffffffffffff811161024757610aaa920161098d565b9091565b346102475761063f610ac1366004610a84565b90611f37565b61063f610ad53660046109bd565b94939093929192612107565b34610247576102cb6102b8610af736600461056b565b6122e8565b34610247576102cb610694610b1236600461056b565b612318565b346102475761063f610b2a366004610a84565b90612324565b34610247576102cb6105b3610b4636600461056b565b612343565b906020828203126102475761029a916105f6565b34610247576102cb610694610b75366004610b4b565b612396565b90610b9a610b93610b89845190565b8084529260200190565b9260200190565b9060005b818110610bab5750505090565b909192610bde610bd7600192865173ffffffffffffffffffffffffffffffffffffffff16815260200190565b9460200190565b929101610b9e565b90610bf5610b93610b89845190565b9060005b818110610c065750505090565b909192610c20610bd7600192865161ffff16815260200190565b929101610bf9565b604080825261029a939192610c3f91840190610b7a565b916020818403910152610be6565b3461024757610c65610c6036600461056b565b6124a6565b906102cb610c7260405190565b92839283610c28565b34610247576102cb6102b8610c91366004610796565b906124c2565b909182601f830112156102475781359167ffffffffffffffff831161024757602001926020830284011161024757565b9060208282031261024757813567ffffffffffffffff811161024757610aaa9201610c97565b346102475761063f610d00366004610cc7565b90612569565b61029a60006008610485565b3461024757610d223660046102cf565b6102cb61054c610d06565b34610247576102cb6102b8610d4336600461056b565b612618565b801515610270565b9050359061028482610d48565b91906040838203126102475761029a906020610d7982866105f6565b9401610d50565b346102475761063f610d93366004610d5d565b90612636565b67ffffffffffffffff811161045f57602090601f017fffffffffffffffffffffffffffffffffffffffffffffffffffffffffffffffe0160190565b90826000939282370152565b90929192610df061084182610d99565b938185528183011161024757610284916020850190610dd4565b9080601f830112156102475781602061029a93359101610de0565b91909160408184031261024757610e3c83826105f6565b92602082013567ffffffffffffffff81116102475761029a9201610e0a565b346102475761063f610e6e366004610e25565b90612665565b9060808282031261024757610e8981836105f6565b92610e9782602085016105f6565b92610ea5836040830161055e565b92606082013567ffffffffffffffff81116102475761029a9201610e0a565b346102475761063f610ed7366004610e74565b9291909161266f565b90610eef610b93610b89845190565b9060005b818110610f005750505090565b909192610f16610bd76001928651815260200190565b929101610ef3565b604080825261029a939192610f3591840190610b7a565b916020818403910152610ee0565b3461024757610f5b610f5636600461056b565b612688565b906102cb610f6860405190565b92839283610f1e565b34610247576102cb61054c610f8736600461056b565b6127bc565b346102475761063f610f9f366004610796565b90612881565b91906040838203126102475761029a9060206107b282866105f6565b34610247576102cb6102b8610fd7366004610fa5565b9061288b565b610ff0610fea61029a9290565b60e01b90565b7fffffffff000000000000000000000000000000000000000000000000000000001690565b6110226380ac58cd610fdd565b7fffffffff00000000000000000000000000000000000000000000000000000000821614908115611154575b811561111b575b81156110e2575b81156110a9575b811561106d575090565b90506110a561107f637965db0b610fdd565b917fffffffff000000000000000000000000000000000000000000000000000000001690565b1490565b90506110b8632a55205a610fdd565b7fffffffff0000000000000000000000000000000000000000000000000000000082161490611063565b90506110f16301ffc9a7610fdd565b7fffffffff000000000000000000000000000000000000000000000000000000008216149061105c565b905061112a635b5e139f610fdd565b7fffffffff0000000000000000000000000000000000000000000000000000000082161490611055565b905061116363780e9d63610fdd565b7fffffffff000000000000000000000000000000000000000000000000000000008216149061104e565b1561024757565b61029a61029a61029a9290565b906111ab90611194565b600052602052604060002090565b6111e161029a916111c8600090565b506111da6111d5826122e8565b61118d565b60056111a1565b5473ffffffffffffffffffffffffffffffffffffffff1690565b61057f61029a61029a9273ffffffffffffffffffffffffffffffffffffffff1690565b61029a906111fb565b61029a9061121e565b906111ab90611227565b61029a905b60ff1690565b61029a905461123a565b906102849161128761126083612343565b73ffffffffffffffffffffffffffffffffffffffff8116331490811561128c575b5061118d565b6128de565b6112ab915061129f6112a6916006611230565b3390611230565b611245565b38611281565b61029a9081565b61029a90546112b1565b3561029a81610558565b3561029a816105da565b9035907fffffffffffffffffffffffffffffffffffffffffffffffffffffffffffffffe13682900301821215610247570180359067ffffffffffffffff82116102475760200191602082023603831361024757565b5061029a906020810190610824565b906000825b82821061134d575050505090565b90919293611377611370600192611364888661132b565b61ffff16815260200190565b9560200190565b9392019061133f565b909161029a9261133a565b5061029a9060208101906105f6565b906000825b8282106113ad575050505090565b909192936113e26113706001926113c4888661138b565b73ffffffffffffffffffffffffffffffffffffffff16815260200190565b9392019061139f565b909161029a9261139a565b98969492909b9a99979593916101608a019c60008b01611414919052565b60208a015260408901526060880152608087015260a086015273ffffffffffffffffffffffffffffffffffffffff1660c085015260e08401526101008301526101208201526101400152565b602080939261149d61149861051c947f1901000000000000000000000000000000000000000000000000000000000000815260020190565b918252565b01918252565b61162e611558916114b2600090565b506114bd60016112b8565b9061160a7f00000000000000000000000000000000000000000000000000000000000000006114eb836112c2565b906115586114fb602086016112c2565b94611508604082016112c2565b90611515606082016112c2565b611521608083016112c2565b61152d60a084016112cc565b61155861156461154060e08701876112d6565b9061154a60405190565b938492602084019283611380565b9081038252038261041f565b61157661156f825190565b9160200190565b209161155861158c6115406101008801886112d6565b61159761156f825190565b20936115586115e66115b66115586115ce6115b66101208c018c6112d6565b906115c060405190565b9384926020840192836113eb565b6115d961156f825190565b20986101408101906112d6565b6115f161156f825190565b20966115fc60405190565b9c8d9b60208d019b8c6113f6565b61161561156f825190565b209061162060405190565b938492602084019283611460565b61163961156f825190565b2090565b9061028492916116506111d58433612947565b612a2b565b906111ab565b600161167461029a9261166c600090565b506000611655565b016112b8565b61029a905b61ffff1690565b61029a905461167a565b61167f61029a61029a9290565b61029a61029a61029a9261ffff1690565b7f4e487b7100000000000000000000000000000000000000000000000000000000600052601160045260246000fd5b818102929181159184041417156116f057565b6116ae565b61029a612710611690565b7f4e487b7100000000000000000000000000000000000000000000000000000000600052601260045260246000fd5b90611739565b9190565b908115611744570490565b611700565b61029a6103e8611690565b91906003611782600061176786846111a1565b015473ffffffffffffffffffffffffffffffffffffffff1690565b936117978261179183826111a1565b01611686565b6117ac6117a46000611690565b9161ffff1690565b036117e05750506117cf61029a916117ca6117c5611749565b61169d565b6116dd565b6117da6117c56116f5565b9061172f565b916117ca6117c58361179161029a966117cf966111a1565b90610284916118106118098261165b565b3390612ae9565b9061028491612b91565b90610284916117f8565b61029a9061185161183761057f85612343565b9173ffffffffffffffffffffffffffffffffffffffff1690565b1461118d565b90610284929161187961187060006117678460036111a1565b61185133611837565b612ed7565b61028491906118a33373ffffffffffffffffffffffffffffffffffffffff8416611851565b613012565b61057f61029a61029a9290565b61029a906118a8565b61029a60006118b5565b61029a7f9f2df0fed2c77648de5860a4cc508cd0818c85b8b8a1ab4ceeef8d981c8956a6611194565b61029a913691610de0565b818352602090920191906000825b828210611918575050505090565b9091929361192f6113706001926113c4888661138b565b9392019061190a565b818352602090920191906000825b828210611954575050505090565b9091929361196b611370600192611364888661132b565b93920190611946565b606080825261029a9591946119a094909361199292870191906118fc565b918483036020860152611938565b9060408183039101526000815260200190565b90815260406020820181905261029a929101906104ca565b9062ff00009060101b5b9181191691161790565b906119ef61029a6119f692151590565b82546119cb565b9055565b90611b0890611b0e9361028497600197600397611a23611a1c602089016112c2565b3490611851565b600454968794611a32826114a3565b9660c08301611a40816112cc565b611a4e61183761057f6118be565b03611b145750916111d59786611a75611a6f611afd95611b029998976118f1565b8361318f565b91611a8a839b8c94611a856118c8565b6124c2565b611af6611558611aef611ad2611a9f886112c2565b611ade611ab06101208b018b6112d6565b90611abe60e08d018d6112d6565b604051919691968794602086019485611974565b9081038252038361041f565b6040519384926020840192836119b3565b8b856131e4565b34936131f9565b6118f1565b926133cd565b826111a1565b016119df565b918689611b4d611b0298979694611b2d611afd976112cc565b809d8e96611b3d83611a856118c8565b9384611b52575b5050505061118d565b611a8a565b611b67945090611b61916118f1565b916130a7565b38838180611b44565b9061149861084183610d99565b61029a6000611b70565b61029a611b7d565b909161028492611b9d611b87565b9261266f565b61028490611bb46111d58233612947565b6133e4565b909160608284031261024757813567ffffffffffffffff81116102475783611be2918401610e0a565b9260208301359067ffffffffffffffff82116102475760406107b28261029a948701610e0a565b919060086119d5910291611c3c7fffffffffffffffffffffffffffffffffffffffffffffffffffffffffffffffff841b90565b921b90565b9190611c5261029a6119f693611194565b908354611c09565b61028491600091611c41565b818110611c71575050565b80611c7f6000600193611c5a565b01611c66565b9190601f8111611c9457505050565b611ca661028493600052602060002090565b906020601f840181900483019310611cc8575b6020601f909101040190611c66565b9091508190611cb9565b90611cdb815190565b9067ffffffffffffffff821161045f57611cff82611cf98554610338565b85611c85565b602090601f8311600114611d58576119f6929160009183611d4d575b50507fffffffffffffffffffffffffffffffffffffffffffffffffffffffffffffffff600883021c1916906002021790565b015190503880611d1b565b601f19831691611d6d85600052602060002090565b9260005b818110611dca57509160029391856001969410611d92575b50505002019055565b01517fffffffffffffffffffffffffffffffffffffffffffffffffffffffffffffffff6008601f8516021c19165b9055388080611d89565b91936020600181928787015181550195019201611d71565b9061028491611cd2565b61029a6000611194565b61029a7f850d585eb7f024ccee5e68e55f2c26cc72e1e6ee456acf62135757a5eb9d4a10611194565b80546000939291611e3261037583610338565b91600181169081156103d15750600114611e4b57505050565b611e5e9192939450600052602060002090565b916000925b818410611e705750500190565b805484840152602090930192600101611e63565b9061029a91611e1f565b9061028461047e92611e9f60405190565b93848092611e84565b61029a90611e8e565b611ede61028494611ed7606094989795611ed0608086019a6000870152565b6020850152565b6040830152565b019073ffffffffffffffffffffffffffffffffffffffff169052565b907fffffffffffffffffffffffffffffffffffffffffffffffffffffffffffffffff906119d5565b90611f3061029a6119f69290565b8254611efa565b611faf611fa0611f96611fa893611fea95611f8e611f887f000000000000000000000000000000000000000000000000000000000000000073ffffffffffffffffffffffffffffffffffffffff1690565b33611851565b810190611bb9565b9491929094611227565b936008611de2565b6007611de2565b611fc081611fbb611dec565b612b91565b611fc8611df6565b90611fd38183612b91565b611fe5611fde6118c8565b9182612b91565b613413565b6102847f000000000000000000000000000000000000000000000000000000000000000061204e61201b6007611ea8565b61202661156f825190565b209161203130611227565b9261155861203e60405190565b9485936020850193469185611eb1565b61205961156f825190565b206001611f22565b80156116f0577fffffffffffffffffffffffffffffffffffffffffffffffffffffffffffffffff0190565b7f4e487b7100000000000000000000000000000000000000000000000000000000600052603260045260246000fd5b906120c4825190565b8110156120d5576020809102010190565b61208c565b919082039182116116f057565b9060ff906119d5565b9061210061029a6119f692151590565b82546120e7565b9290939594916121236121299161211d866114a3565b966118f1565b8561318f565b92612136602082016112c2565b60008161214282611194565b811161219a575b50508361219093612182610284999a61217c606087612176612189988d60019f9d6121959f9c8f906131f9565b016112c2565b926118f1565b91846133cd565b6002611230565b611655565b6120f0565b6121a5903490611851565b6121b96121b4606085016112c2565b6139da565b916121c2825190565b90816121d061173583611194565b116121dd575b5050612149565b96929a90999591989487989498506121f3600090565b5060015b15612280575b879a61220890612061565b9a8b996122158b8f6120bb565b5161ffff166122239061169d565b61222d90346116dd565b612238612710611194565b6122419161172f565b908161224c916120da565b9c612257908d6120bb565b5173ffffffffffffffffffffffffffffffffffffffff169061227891613ad9565b9a989a6121f7565b61228988611194565b8b116121fd57909a50949850929650909490935090919083836121826102846121d6565b80548210156120d5576122c7600191600052602060002090565b91020190600090565b61029a916008021c61057f565b9061029a91546122d0565b6122ff612305916122f7600090565b5060046122ad565b906122dd565b61231361183761057f6118be565b141590565b61029a6111d5826122e8565b906102849161233e6111d5612337611dec565b33906124c2565b613c0a565b6122ff612352916122f7600090565b908161236261183761057f6118be565b1461024757565b7fffffffffffffffffffffffffffffffffffffffffffffffffffffffffffffffff81146116f05760010190565b6000906123a461057f6118be565b73ffffffffffffffffffffffffffffffffffffffff821614610247576123ca6000611194565b906004936123d760045490565b935b845b811015612437576123f261057f6122ff83896122ad565b73ffffffffffffffffffffffffffffffffffffffff84161461241e575b6123db906001015b90506123d9565b9261241761242e6123db92612369565b9491505061240f565b50935050905090565b1561244757565b6040517f08c379a000000000000000000000000000000000000000000000000000000000815260206004820152600c60248201527f496e76616c69642063616c6c00000000000000000000000000000000000000006044820152606490fd5b610aaa906121b4333b6124bc6117356000611194565b11612440565b61029a9160006124de6112a6936124d7600090565b5082611655565b01611230565b91908110156120d5576020020190565b9037565b8183529091602001917f07ffffffffffffffffffffffffffffffffffffffffffffffffffffffffffffff8111610247578291602061051c92029384916124f4565b73ffffffffffffffffffffffffffffffffffffffff91909116815260406020820181905261029a939101916124f8565b90809260015b156125b3575b612580600094612061565b936125ae6001612195876125a86125a361259b336002611230565b92898b6124e4565b6112c2565b90611655565b61256f565b6125bd6000611194565b84116125755792507f20298bf7cad93b940d82595aa66e33a5646f39ce609d0e8ed4c7c0c08660e0c1916125fd6125f360405190565b9283923384612539565b0390a1565b61029a9060101c61123f565b61029a9054612602565b600361263061029a92612629600090565b50826111a1565b0161260e565b906102849133613c16565b90610284916126516118096118c8565b906102849161265f60045490565b906131e4565b9061028491612641565b906102849392916126836111d58433612947565b6133cd565b61269860006117678360036111a1565b6126a861183761057f60006118b5565b1461024757610aaa90613d44565b6126c96126c361029a9290565b60f01b90565b7fffff0000000000000000000000000000000000000000000000000000000000001690565b8054600093929161270561270183610338565b9390565b9160018116908115612756575060011461271e57505050565b6127319192939450600052602060002090565b6000905b8382106127425750500190565b600181602092548486015201910190612735565b7fffffffffffffffffffffffffffffffffffffffffffffffffffffffffffffff001683525050811515909102019150565b61051c61279f92602092612799815190565b94859290565b938491016104a7565b6127b69061029a93926126ee565b90612787565b61284861155861284361029a936127d1606090565b506127de6111d5826122e8565b6127fc6127f76127ef6112206126b6565b92600a6111a1565b6112b8565b9061280660405190565b93849260208401928360028161149d61051c93602096957fffff000000000000000000000000000000000000000000000000000000000000169052565b613eb9565b61029a61285460405190565b809261155860208301916009836127a8565b90610284916128776118098261165b565b9061028491613012565b9061028491612866565b61029a916128a66112a69261289e600090565b506006611230565b611230565b9073ffffffffffffffffffffffffffffffffffffffff906119d5565b906128d761029a6119f692611227565b82546128ab565b906128f3826128ee8360056111a1565b6128c7565b61291661291061290a61290584612343565b611227565b93611227565b91611194565b917f8c5be1e5ebec7d5bd14f71427d1e84f3dd0314c0f7b2291e5b200ac8c7c3b92561294160405190565b600090a4565b6129536111d5836122e8565b61295c82612343565b73ffffffffffffffffffffffffffffffffffffffff811673ffffffffffffffffffffffffffffffffffffffff8316149283156129b3575b50821561299f57505090565b61029a9250906128a66112a6926006611230565b6129c49193506111e19060056111a1565b6129e373ffffffffffffffffffffffffffffffffffffffff8316611837565b149138612993565b919060086119d5910291611c3c73ffffffffffffffffffffffffffffffffffffffff841b90565b9190612a2361029a6119f693611227565b9083546129eb565b919091612a59612a3a83612343565b61185173ffffffffffffffffffffffffffffffffffffffff8416611837565b612a616118be565b9073ffffffffffffffffffffffffffffffffffffffff821673ffffffffffffffffffffffffffffffffffffffff8516146102475761290a61291091612aa985612abe956128de565b61290586612ab88760046122ad565b90612a12565b917fddf252ad1be2c89b69c2b068fc378daa952ba7f163c4a11628f55a4df523b3ef61294160405190565b612afa91612af6916124c2565b1590565b612b0057565b6040517f08c379a000000000000000000000000000000000000000000000000000000000815260206004820152601760248201527f4163636f756e74206973206d697373696e6720726f6c650000000000000000006044820152606490fd5b90815273ffffffffffffffffffffffffffffffffffffffff909116602082015260608101929161028491604090611ede565b612b9e612af683836124c2565b612ba6575050565b81612bdd60016121957f2f8788117e7eff1d82e926ec794901d17c78024a50270940304540a733656f0d9560006124de8782611655565b6125fd612be960405190565b928392339184612b5f565b612c019061ffff166117a4565b019061ffff82116116f057565b907fffffffffffffffffffffffffffffffffffffffffffffffffffffffffffffffff612c3e916020036008021c90565b8154169055565b919091828210612c5457505050565b6102849291612c699091600052602060002090565b9182019101611c66565b9068010000000000000000811161045f5781612c90610284935490565b90828155612c45565b81519167ffffffffffffffff831161045f57612cd0612cc4600192612cbe8686612c73565b60200190565b92600052602060002090565b92049160005b838110612ce35750505050565b6001906020612d0961029a865173ffffffffffffffffffffffffffffffffffffffff1690565b9401938184015501612cd6565b9061028491612c99565b919091828210612d2f57505050565b610284926010600f909101049060026010612d56600f860182900493600052602060002090565b92830194060260008111612d6d575b500190611c66565b612d7a9060018503612c0e565b38612d65565b9068010000000000000000811161045f5781612d9d610284935490565b90828155612d20565b919060086119d5910291611c3c61ffff841b90565b61167f61029a61029a9261ffff1690565b90612dd5815190565b9067ffffffffffffffff821161045f57612cc4612df691612cbe8486612d80565b601082049160005b838110612e66575060108302900360008111612e1b575b50505050565b9260009360005b818110612e3757505050015538808080612e15565b9091946020612e5c600192612e5161029a8a5161ffff1690565b908560020290612da6565b9601929101612e22565b6000805b60108110612e7f575083820155600101612dfe565b95906020612ea3600192612e9861029a865161ffff1690565b908a60020290612da6565b92019601612e6a565b9061028491612dcc565b9061ffff906119d5565b90612ed061029a6119f692612dbb565b8254612eb6565b9291612ee1825190565b80612ef6612ef061029a855190565b83611851565b600091600190612f096117356001611194565b03612f6c57505050612f666102849394611b08612f3a612f32612f2c6000611194565b876120bb565b5161ffff1690565b945b612f546003956001612f4e86896111a1565b01612d16565b6002612f6084876111a1565b01612eac565b01612ec0565b93959193906001825b612fa7575b505050612f6690611b086102849596612fa2612f9761167f6116f5565b61ffff88161061118d565b612f3c565b94919415612ffb575b612ff2612fde6000927fffffffffffffffffffffffffffffffffffffffffffffffffffffffffffffffff0190565b92612fec612f32858b6120bb565b90612bf4565b94919082612f75565b6130056000611194565b8111612fb0578194612f7a565b61301c82826124c2565b613024575050565b81612bdd60006121957ff6391f5c32d9c69d2a47ea670b442974b53935d1edc7fd64eb21e047a839171b95826124de8782611655565b61029a631626ba7e610fdd565b3d15613081576130763d611b70565b903d6000602084013e565b606090565b9050519061028482610558565b906020828203126102475761029a91613086565b6000919282916130b5600090565b506130ef6130c161305a565b956130e06130ce60405190565b9485926004602085018b8152016119b3565b6020820181038252038361041f565b602082519201905afa90613101613067565b8261313c575b8261311157505090565b6110a591925061029a61313682602061312b611735955190565b818301019101613093565b93610ff0565b9150613146825190565b6131536117356020611194565b1491613107565b61076361028494611ed7606094989795613179608086019a6000870152565b60ff166020850152565b6040513d6000823e3d90fd5b6020916000916131bc848301519260606040820151910151851a936131b360405190565b9485948561315a565b838052039060015afa156131df57600051908161236261183761057f60006118b5565b613183565b906102849291614159565b3561029a8161081a565b94939291906132239161320e604088016112c2565b421091826133ae575b508161334a575061118d565b61322f602085016112c2565b61323c6117356000611194565b11613248575b50509050565b61325e6132596101408601866112d6565b905090565b8061326c6117356000611194565b11613286575b5061327e929350613ad9565b803880613242565b9084929391613293600090565b5060015b1561331a575b6133126132dc9561330d6133086132f96132f26132e76132e16117c56132c460009a612061565b9d8e6132d6819f6101008101906112d6565b906124e4565b6131ef565b346116dd565b6117da612710611194565b80946120da565b986132d66101408c018c6112d6565b6112cc565b613ad9565b928593613297565b91939092506133296000611194565b82111561333a57929091849261329d565b91905061327e9293508392613272565b60a087019150613359826112cc565b61336961183761057f60006118b5565b1491821561337a575b505038611281565b6133a691925061338c611837916112cc565b9273ffffffffffffffffffffffffffffffffffffffff1690565b143880613372565b6133c69192506112a6612af691612190876002611230565b9038613217565b906102849392916133df838383612a2b565b614231565b610284906133f181614371565b6143a1565b908152606081019392610284929091604091610763906020830152565b907fbd79b86ffe0ab8e8776151514217cd7cacd52c909f66475c3af44e129f0b00ff916125fd6134428261165b565b9261345a816001613454866000611655565b01611f22565b604051938493846133f6565b90613475612cc4610b89845490565b9060005b8181106134865750505090565b9091926134b76134b06001926113c4875473ffffffffffffffffffffffffffffffffffffffff1690565b9460010190565b929101613479565b9061029a91613466565b9061028461047e926134da60405190565b938480926134bf565b61029a906134c9565b61029a9060101c61167f565b61029a9060201c61167f565b61029a9060301c61167f565b61029a9060401c61167f565b61029a9060501c61167f565b61029a9060601c61167f565b61029a9060701c61167f565b61029a9060801c61167f565b61029a9060901c61167f565b61029a9060a01c61167f565b61029a9060b01c61167f565b61029a9060c01c61167f565b61029a9060d01c61167f565b61029a9060e01c61167f565b61029a9060f01c61167f565b906135af612cc4610b89845490565b906000915b600f830182116138185754908083106137fb575b8083106137de575b8083106137c1575b8083106137a4575b808310613787575b80831061376a575b80831061374d575b808310613730575b808310613713575b8083106136f6575b8083106136d9575b8083106136bc575b80831061369f575b808310613682575b808310613665575b821061364357505090565b8261365e60019394613656602094613594565b61ffff169052565b0191505090565b919260208161367960019361365686613588565b01930191613638565b91926020816136966001936136568661357c565b01930191613630565b91926020816136b360019361365686613570565b01930191613628565b91926020816136d060019361365686613564565b01930191613620565b91926020816136ed60019361365686613558565b01930191613618565b919260208161370a6001936136568661354c565b01930191613610565b919260208161372760019361365686613540565b01930191613608565b919260208161374460019361365686613534565b01930191613600565b919260208161376160019361365686613528565b019301916135f8565b919260208161377e6001936136568661351c565b019301916135f0565b919260208161379b60019361365686613510565b019301916135e8565b91926020816137b860019361365686613504565b019301916135e0565b91926020816137d5600193613656866134f8565b019301916135d8565b91926020816137f2600193613656866134ec565b019301916135d0565b919260208161380f6001936136568661167a565b019301916135c8565b92835490806138268361167a565b61ffff16905260200180613839836134ec565b61ffff1690526020018061384c836134f8565b61ffff1690526020018061385f83613504565b61ffff1690526020018061387283613510565b61ffff169052602001806138858361351c565b61ffff1690526020018061389883613528565b61ffff169052602001806138ab83613534565b61ffff169052602001806138be83613540565b61ffff169052602001806138d18361354c565b61ffff169052602001806138e483613558565b61ffff169052602001806138f783613564565b61ffff1690526020018061390a83613570565b61ffff1690526020018061391d8361357c565b61ffff1690526020018061393083613588565b61ffff1690526020016139438192613594565b61ffff1690526020019260010191601001916135b4565b9061029a916135a0565b9061028461047e9261397560405190565b9384809261395a565b61029a90613964565b9061149861084183610802565b369037565b906102846139af6139a984613987565b93610802565b7fffffffffffffffffffffffffffffffffffffffffffffffffffffffffffffffe00160208401613994565b60609182916003906139f08261263083826111a1565b600090613a08575081611b0e600192610284946111a1565b91819550809450611791613a1c92826111a1565b613a286117a483611690565b03613aac5761028490613aa3613a3e6001611194565b95613a92613a4b88613999565b613a77613a6786611767613a5f859d613999565b96879c6111a1565b91613a7187611194565b906120bb565b9073ffffffffffffffffffffffffffffffffffffffff169052565b613a71613a9d611749565b93611194565b9061ffff169052565b5090916002613ad382613acd6001613ac761029a96896111a1565b016134e3565b956111a1565b0161397e565b600061028492613aec6129058394611227565b90613af660405190565b90818003925af1611281613067565b919067ffffffffffffffff821161045f57613b2482611cf98554610338565b600090601f8311600114613b7c576119f6929160009183613b715750507fffffffffffffffffffffffffffffffffffffffffffffffffffffffffffffffff600883021c1916906002021790565b013590503880611d1b565b90601f19831691613b9285600052602060002090565b92825b818110613be757509160029391856001969410613bb55750505002019055565b01357fffffffffffffffffffffffffffffffffffffffffffffffffffffffffffffffff601f84166008021c1916611dc0565b92936020600181928786013581550195019301613b95565b906102849291613b05565b90610284916009613bff565b73ffffffffffffffffffffffffffffffffffffffff821673ffffffffffffffffffffffffffffffffffffffff82161461024757613c91613c8761290a8361290587612195886128a67f17307eab39ab6107e8899845ad3d59bd9653f200f220920489ca2b5937696c31996006611230565b936102bc60405190565b0390a3565b61029a60a06107ee565b90610284613d326003613cb1613c96565b94613ced613cd3825473ffffffffffffffffffffffffffffffffffffffff1690565b73ffffffffffffffffffffffffffffffffffffffff168752565b613d03613cfc600183016134c9565b6020880152565b613d19613d1260028301613964565b6040880152565b612630613d27838301611686565b61ffff166060880152565b15156080840152565b61029a90613ca0565b613d57613d528260036111a1565b613d3b565b916020830192613d6684515190565b90600094613d7386611194565b8303613dc857505050610284613d896001611194565b93613dc5613d9686613999565b613db7613da38298613999565b91613a77613a6786611767869b60036111a1565b613a71613a9d6117c5611749565b52565b9092949193505190613dd984613999565b94613de48692611194565b855b811015613e2257613e1b81613e15613e0b6117c5612f32613de69660408c01516120bb565b613dc5838c6120bb565b60010190565b9050613de4565b50925092509250565b906102846139af613e3b84611b70565b93610d99565b61123f61029a61029a9290565b90613e57825190565b8110156120d5570160200190565b61123f61029a61029a9260ff1690565b61029a9060f81c613e65565b61029a61029a61029a9260ff1690565b919082018092116116f057565b8115611744570690565b60ff1660ff81146116f05760010190565b90815191600092613ecc61173585611194565b146140cc57613ee3613ede6040611194565b613999565b92613f04613ef082613e41565b613efc612f2c84611194565b9060ff169052565b60018091613f126001613e41565b93613f1c82611194565b935b613f42575b50505050613f38613f3d9161029a93946143bf565b614411565b6144ed565b613f5161029a82979695975190565b8610156140c357613f9b613f96613f91613f6b8985613e4e565b517fff000000000000000000000000000000000000000000000000000000000000001690565b613e75565b613e81565b838089613fa786611194565b915b614034575b50505b613fca575b50613fc48394959660010190565b93613f1e565b613fd78397969597611194565b81111561402b5761402584916117da61401f61400598999a61401a8d613efc61401061400b603a9e8f611194565b89613e9e565b613e41565b91613a7185613e81565b613ea8565b97611194565b90613fb1565b95939495613fb6565b909261403f88613e81565b8410156140bb576140ad6140816140b49261407b61406a613f966140638a896120bb565b5160ff1690565b614075610100611194565b906116dd565b90613e91565b6117da603a6140a861409e61400b61409884611194565b86613e9e565b613efc8a896120bb565b611194565b9360010190565b9082613fa9565b925080613fae565b83949550613f23565b50906140da61029a91611194565b613e2b565b909291926140ef61084182610d99565b9381855281830111610247576102849160208501906104a7565b9080601f8301121561024757815161029a926020016140df565b9190916040818403126102475761413a8382613086565b92602082015167ffffffffffffffff81116102475761029a9201614109565b91614173906020614168825190565b818301019101614123565b9190926141806000611194565b841480156141b9575b610247576141b46001612195866141ad610284986141a888600a6111a1565b611f22565b600b611655565b6146af565b506141c86112a685600b611655565b614189565b905051906102848261024c565b906020828203126102475761029a916141cd565b73ffffffffffffffffffffffffffffffffffffffff91821681529116602082015261029a92608082019290919061422490611ed7565b60608184039101526104ca565b9092833b6142426117356000611194565b14928315614258575b505050610284915061118d565b602092935061426c61290561429b96611227565b90600063150b7a029561427e60405190565b9788958694859361428f8b60e01b90565b855233600486016141ee565b03925af19081156131df57610284926000926142c8575b5061107f6142bf91610fdd565b1438808061424b565b6142bf9192506142f261107f9160203d6020116142fa575b6142ea818361041f565b8101906141da565b9291506142b2565b503d6142e0565b600061028491612c73565b906000036104965761028490614301565b600061028491612d80565b90600003610496576102849061431d565b60008082559060039061434f836001830161430c565b61435c8360028301614328565b0155565b906000036104965761028490614339565b60006143816102849260036111a1565b614360565b9190611c5261029a6119f69390565b61028491600091614386565b610284906143ba60006143b583600a6111a1565b614395565b614718565b91906143ca90613e81565b916143d483613999565b916143df6000611194565b8481101561440a5780613e156143fb61406361440594876120bb565b613efc83886120bb565b6143df565b5092505090565b61441c613ede825190565b906144276000611194565b61443261029a835190565b81101561447f5780613e1561447061406361446a61447a95614465614455895190565b61445f6001611194565b906120da565b6120da565b866120bb565b613efc83876120bb565b614427565b505090565b61448e603a611b70565b7f31323334353637383941424344454647484a4b4c4d4e5051525354555657585960208201527f5a6162636465666768696a6b6d6e6f707172737475767778797a000000000000604082015290565b61029a614484565b61029a6144dd565b906144f96140da835190565b6000926145066000611194565b61451161029a835190565b8110156145585761455390614540613f6b61452a6144e5565b61453a613f9661406386896120bb565b90613e4e565b861a61454c8286613e4e565b5360010190565b614506565b5090925050565b90505190610284826105da565b9092919261457c61084182610802565b938185526020808601920283019281841161024757915b8383106145a05750505050565b602080916145ae848661455f565b815201920191614593565b9080601f8301121561024757815161029a9260200161456c565b905051906102848261081a565b909291926145f061084182610802565b938185526020808601920283019281841161024757915b8383106146145750505050565b6020809161462284866145d3565b815201920191614607565b9080601f8301121561024757815161029a926020016145e0565b9160608383031261024757825167ffffffffffffffff8111610247578261466f9185016145b9565b92602081015167ffffffffffffffff8111610247578361469091830161462d565b92604082015167ffffffffffffffff81116102475761029a9201614109565b906146cc6102849360206146c1825190565b818301019101614647565b93916146d6815190565b6146e36117356000611194565b11614707575b50506147028160006146fc8560036111a1565b016128c7565b614752565b6147119184612ed7565b38806146e9565b6102849061472581614371565b6147fe565b908154916801000000000000000083101561045f5782612ab8916001610284950181556122ad565b919061475e60006118b5565b9273ffffffffffffffffffffffffffffffffffffffff841673ffffffffffffffffffffffffffffffffffffffff82161461024757610284936147a182600461472a565b6147ac6129056118be565b6147b583611227565b6147be85611194565b917fddf252ad1be2c89b69c2b068fc378daa952ba7f163c4a11628f55a4df523b3ef6147e960405190565b600090a4614231565b61028491600091612a12565b614813600061480e8360056111a1565b6147f2565b6148276148218260046122ad565b906147f2565b61482f6118be565b90612abe61291061290a3361122756",
    "linkReferences": {}
  },
  "methodIdentifiers": {
    "approve(address,uint256)": "095ea7b3",
    "balanceOf(address)": "70a08231",
    "burn(uint256)": "42966c68",
    "exists(uint256)": "4f558e79",
    "getApproved(uint256)": "081812fc",
    "getRoleAdmin(bytes32)": "248a9ca3",
    "getRoyalties(uint256)": "bb3bafd6",
    "getTypedDataDigest((bytes32,uint256,uint256,uint256,uint256,address,address,uint16[],uint16[],address[],address[]))": "1177dcdc",
    "grantRole(bytes32,address)": "2f2ff15d",
    "hasRole(bytes32,address)": "91d14854",
    "initialize(bytes)": "439fab91",
    "isApprovedForAll(address,address)": "e985e9c5",
    "isSecondaryMarket(uint256)": "990d2fd1",
    "lazyBuy((bytes32,uint256,uint256,uint256,uint256,address,address,uint16[],uint16[],address[],address[]),bytes,bytes,address)": "43b8736c",
    "lazyMint((bytes32,uint256,uint256,uint256,uint256,address,address,uint16[],uint16[],address[],address[]),bytes,bytes,address)": "422b0d25",
    "mint(address,bytes)": "b510391f",
    "name()": "06fdde03",
    "ninfaRoyaltyInfo(uint256)": "8c3f41b8",
    "ownerOf(uint256)": "6352211e",
    "renounceRole(bytes32,address)": "36568abe",
    "revokeRole(bytes32,address)": "d547741f",
    "royaltyInfo(uint256,uint256)": "2a55205a",
    "safeTransferFrom(address,address,uint256)": "42842e0e",
    "safeTransferFrom(address,address,uint256,bytes)": "b88d4fde",
    "setApprovalForAll(address,bool)": "a22cb465",
    "setBaseURI(string)": "55f804b3",
    "setRoyaltyInfo(uint256,uint16[],address[])": "2f8983d3",
    "supportsInterface(bytes4)": "01ffc9a7",
    "symbol()": "95d89b41",
    "tokenByIndex(uint256)": "4f6ccce7",
    "tokenOfOwnerByIndex(address,uint256)": "2f745c59",
    "tokenURI(uint256)": "c87b56dd",
    "totalSupply()": "18160ddd",
    "transferFrom(address,address,uint256)": "23b872dd",
    "voidVouchers(bytes32[])": "92cb4208"
  },
  "id": 9
}